:100000000C9410040C9457040C9457040C9457044B
:100010000C9457040C9457040C9457040C945704F4
:100020000C9457040C9457040C94A52C0C94782D24
:100030000C947C260C9457040C9457040C9457048D
:100040000C9457040C9457040C9457040C945704C4
:100050000C9457040C94E7260C9457040C94570402
:100060000C9457040C9457040C9457040C945704A4
:100070000C9457040C9457040C9457040C94570494
:100080000C9457040C9457040C9457040C94570484
:100090000C9457040C9457040C9457040C94570474
:1000A0000C9457040C9457040C945704076342367D
:1000B000B79BD8A71A39685618AEBAAB558C1D3CF9
:1000C000B7CC5763BD6DEDFD753EF6177231BF00BD
:1000D0000000803F05A84CCDB2D44EB93836A902F5
:1000E0000C50B9918688083CA6AAAA2ABE00000036
:1000F000803F0A000A002C0025346400656E636F9F
:100100006465723A25642C25640A00000000000032
:1001100000000000000000000000000000000000DF
:1001200000000000000000000000000000000000CF
:100130000000000000000000000000444542554758
:100140003A2064697361626C65642E0A004445421A
:1001500055473A20656E61626C65642E0A000000A6
:100160000000000000002A2B280000000000000012
:1001700000000000000000000029000000002C1E0C
:100180003420212224342627252E362D3738271EC9
:100190001F202122232425263333362E37381F04EF
:1001A00005060708090A0B0C0D0E0F101112131487
:1001B00015161718191A1B1C1D2F3130232D350445
:1001C00005060708090A0B0C0D0E0F101112131467
:1001D00015161718191A1B1C1D2F3130354C00002D
:1001E000000000000000000000000000000000000F
:1001F00000007E0F00D4FFFFFFC7000000780A0058
:1002000025303862003A200025303258000A722F1B
:10021000632030313233343536370A007267626C0E
:10022000696768742074696D6572206469736162BE
:100230006C652E0A007267626C6967687420746965
:100240006D657220656E61626C65642E0A0072676E
:10025000626C696768742073657420737065656487
:10026000205B4E4F454550524F4D5D3A2025750A53
:10027000007267626C6967687420736574207370BC
:10028000656564205B454550524F4D5D3A202575AC
:100290000A007267626C696768742073657420680D
:1002A0007376205B4E4F454550524F4D5D3A2025A9
:1002B000752C25752C25750A007267626C69676854
:1002C000742073657420687376205B454550524FE7
:1002D0004D5D3A2025752C25752C25750A00726711
:1002E000626C696768742064697361626C65205B25
:1002F0004E4F454550524F4D5D3A207267626C69D2
:100300006768745F636F6E6669672E656E61626CA5
:1003100065203D2025750A007267626C6967687404
:100320002064697361626C65205B454550524F4D96
:100330005D3A207267626C696768745F636F6E66AE
:1003400069672E656E61626C65203D2025750A0027
:100350007267626C6967687420656E61626C6520A3
:100360005B4E4F454550524F4D5D3A207267626C6F
:10037000696768745F636F6E6669672E656E616238
:100380006C65203D2025750A007267626C6967689C
:100390007420656E61626C65205B454550524F4D1F
:1003A0005D3A207267626C696768745F636F6E663E
:1003B00069672E656E61626C65203D2025750A00B7
:1003C0007267626C6967687420746F67676C652018
:1003D0005B454550524F4D5D3A207267626C6967CC
:1003E00068745F636F6E6669672E656E61626C65C7
:1003F000203D2025750A007267626C696768742069
:100400006D6F6465205B4E4F454550524F4D5D3AD0
:100410002025750A007267626C69676874206D6FC9
:100420006465205B454550524F4D5D3A2025750A65
:10043000007267626C696768745F696E69742072C4
:1004400067626C696768745F636F6E6669672E6D5B
:100450006F6465203D20302E2057726974652064DA
:10046000656661756C742076616C75657320746F58
:1004700020454550524F4D2E0A007267626C6967E5
:1004800068745F696E6974206565636F6E6669671D
:10049000206973206E6F7420656E61626C65642ED6
:1004A0000A007267626C696768745F696E697420BC
:1004B0007374617274210A007267626C6967687490
:1004C0005F696E69742063616C6C65642E0A0072EA
:1004D00067626C696768745F636F6E6669672E73C5
:1004E00070656564203D2025640A007267626C694E
:1004F0006768745F636F6E6669672E76616C203D16
:100500002025640A007267626C696768745F636FB4
:100510006E6669672E736174203D2025640A00723F
:1005200067626C696768745F636F6E6669672E687F
:100530007565203D2025640A007267686C696768EC
:10054000745F636F6E6669672E6D6F6465203D2012
:1005500025640A007267626C696768745F636F6E16
:100560006669672E656E61626C65203D2025640AB0
:10057000007267626C696768745F636F6E66696753
:1005800020454550524F4D3A0A0000041E140A05FA
:100590000001010101010101010102020202020246
:1005A0000202020303030303030303040404040419
:1005B00004040505050505060606060607070707E0
:1005C0000708080808090909090A0A0A0B0B0B0C95
:1005D0000C0C0D0D0D0E0E0E0F0F0F101011111132
:1005E00012121313141415151616171718181919B3
:1005F0001A1A1B1B1C1D1D1E1E1F20202122222318
:100600002424252626272829292A2B2C2D2D2E2F58
:1006100030313232333435363738393A3B3C3D3E6F
:100620003F404142434445464748494A4C4D4E4F5E
:1006300050515354555658595A5B5D5E5F61626420
:10064000656668696B6C6D6F7072737577787A7BAD
:100650007D7E8082838587888A8C8E8F9193959604
:10066000989A9C9EA0A2A3A5A7A9ABADAFB1B3B524
:10067000B7BABCBEC0C2C4C6C9CBCDCFD1D4D6D800
:10068000DBDDDFE2E4E7E9EBEEF0F3F5F8FAFDFF9E
:100690000A002530325820006B6579626F61726400
:1006A0005F7265706F72743A20000A00253032580C
:1006B000006B6579626F6172645F7365745F6C650E
:1006C000643A20005B735D004B6579626F61726410
:1006D0002073746172742E0A005B575D005B535D7A
:1006E000005B525D005B445D005B435D00040330D2
:1006F0000000000E03450043004D0058003200305A
:100700000000001E03730065006B00690067006F46
:10071000006E002D0067006F006E006E006F0063BA
:100720000000000403090409026200030100A0FAAA
:100730000904000001030101000921110100012247
:1007400040000705810308000A09040100020300B4
:100750000000092111010001222200070582032067
:100760000001070503032000010904020002030041
:100770000000092111010001222200070584032045
:100780000001070504032000011201100100000010
:1007900008EDFE20EC0100010203010631FF09749F
:1007A000A1010975150026FF009520750881020931
:1007B00076150026FF00952075089102C00660FF9F
:1007C0000961A1010962150026FF009520750881C5
:1007D000020963150026FF00952075089102C005E7
:1007E000010906A101050719E029E7150025019572
:1007F0000875018102950175088101050719002915
:10080000FF150026FF0095067508810005081901EF
:100810002905950575019102950175039101C000A7
:1008200011241FBECFEFDAE0DEBFCDBF04B603FE5A
:1008300027C08091390290913A02A0913B02B09179
:100840003C028730904BA740B04BD1F41092390254
:1008500010923A0210923B0210923C0214BE84B7EE
:10086000877F84BF0FB6F894A89580916000886157
:1008700080936000109260000FBEE0E0F8E30995FD
:1008800011E0A0E0B1E0ECEAF6E602C005900D92BE
:10089000AA34B107D9F722E0AAE4B1E001C01D9261
:1008A000A933B207E1F70E9454290C9407330C9442
:1008B0000000FF93EF93E0914A01F0914B013097D4
:1008C00009F00995EF91FF910895FC018591803021
:1008D00011F0EFDFFBCF0895FF27E0E230E247FFA2
:1008E0000CC0419597FF09C0EDE260957095809529
:1008F0009095611D711D811D911D27FF02C02195DD
:1009000030E350E2AA27660F771F881F991FAA1F9E
:10091000A41710F0A41B63955A95A9F7AA3008F004
:10092000A95FA05DAF93F3956115710581059105F0
:1009300041F7ED3211F4EF93F395F21718F43F936A
:10094000F395FBCF8F91B5DFFA95E1F70895E99123
:10095000F9918591803021F0853219F0AADFF9CF25
:10096000089520E0E89455915532C1F3503311F4C5
:10097000689455915A3348F4505390F3220F022E45
:10098000220F220F200D250FF4CF0EF4219589910F
:100990009991533619F3533729F1533559F1BC0165
:1009A00088279927E8945C3621F489919991689475
:1009B0005591543639F446EF7EF077FF0DC08FEF36
:1009C0009FEF0AC055374AE039F0583540E121F031
:1009D000523642E009F00895FF93EF937DDFEF91E7
:1009E000FF91B7CFFF93EF93FC0181918030B9F372
:1009F00060DFFBCFFF93EF9368DFF1CFDF93CF93FF
:100A0000CDB7DEB72596A3DFCF91DF910895807C27
:100A1000809300010895803F09F188F4843901F141
:100A200040F48533F9F08633F9F0843339F583E205
:100A300008958639D9F0873909F582E20895853F0E
:100A4000B9F030F4813FB1F0843FC1F484E00895FF
:100A5000863F91F0873F91F487E0089580E0089504
:100A600080E2089584E2089585E2089581E2089580
:100A700085E0089581E0089586E008958FE1089566
:100A800096E890937A00982F9072906890937B00EC
:100A90008F7190910001892B80937C0080917A0066
:100AA000806480937A0080917A0086FDFCCF8091EB
:100AB00078009091790008950E940B050C944005F0
:100AC0000F931F93CF93DF93FC0180819181A281CB
:100AD000B38180937C0190937D01A0937E01B093BC
:100AE0007F012998219A80EC0E940705CFE1D1E08F
:100AF00024E231E041E050E08991E82FE295EF7087
:100B0000A1E2AE0FB0E06C918F708A0102C0000FBD
:100B1000111F8A95E2F7C801962F982B9C93EE5DE2
:100B2000F0E090818095892380832C173D0721F781
:100B3000A8E1B1E02BE131E061E070E08D91E82FB8
:100B4000E295EF70EF5DF0E090818F70AB0101C036
:100B5000440F8A95EAF7892F842B80832A173B0755
:100B600069F72198299890E080E0DF91CF911F915B
:100B70000F91089540917C0150917D0160917E011B
:100B800070917F01FC0140835183628373830895D8
:100B9000BF92CF92DF92EF92FF920F931F93CF936A
:100BA000DF937C01D0E0C0E010E000E0B12CCC2469
:100BB000C394D12C0530110581F42196C430D105A0
:100BC00009F093C08B2DDF91CF911F910F91FF9072
:100BD000EF90DF90CF90BF900895219AFE01E55EDF
:100BE000FE4F808180FF6AC0599A81FF69C0589A80
:100BF00082FF68C05C9AAFE1B1E09D91E92FE29578
:100C0000EF70EE5DF0E020819F70A60102C0440FFE
:100C1000551F9A95E2F7CA0180958223808351E09F
:100C2000A432B50751F7F89421982998F801E15EAC
:100C3000FE4F8081E82FE295EF70EE5DF0E090814D
:100C40008F70960101C0220F8A95EAF7892F822BB7
:100C5000808386EF0E945C059C017894F801EE0F7A
:100C6000FF1FEE0FFF1FEC0FFD1FEE0FFF1FE45BDA
:100C7000FE4F31832083F701E00FF11F8081482F61
:100C800050E00C2E02C0559547950A94E2F740FFBC
:100C90001BC040917C0150917D012417350718F548
:100CA00096010C2E01C0220F0A94EAF720958223A8
:100CB000808381E0B82A0F5F1F4F7CCF599895CF72
:100CC000589896CF5C9897CF40917E0150917F01C4
:100CD0004217530740F496010C2E01C0220F0A94CC
:100CE000EAF7822BE5CF80E0E5CF10E000E062CFAD
:100CF000AF92BF92CF92DF92EF92FF920F931F932A
:100D0000CF93DF93D0E0C0E0B12CA12C08EF10E02E
:100D100026EFE22E20E0F22E34EFC32E30E0D32E69
:100D20008091140280FF25C0FE01EE0FFF1FEE0F21
:100D3000FF1FEA0DFB1DEE0FFF1FE45BFE4F8181DD
:100D40008F9380818F931F930F930E94FE040F90C7
:100D50000F900F900F9083E0A816B10451F080918E
:100D6000140280FF06C0FF92EF920E94FE040F90D3
:100D70000F908FEFA81AB80A84E0A816B10481F684
:100D80008091140280FF06C0DF92CF920E94FE0481
:100D90000F900F902196C530D105B9F480911402BF
:100DA00080FF08C082EF90E09F938F930E94FE0423
:100DB0000F900F90DF91CF911F910F91FF90EF90C7
:100DC000DF90CF90BF90AF900895B12CA12CA8CF09
:100DD000CF93DF9300D000D0CDB7DEB782E290E0B2
:100DE0000E94CD329A83898384E290E00E94CD32C2
:100DF0009C838B83CE0101960E94600526982E9AD3
:100E00000F900F900F900F90DF91CF9108951F9347
:100E1000CF93DF93EC010E94C805182F9D811E9986
:100E200017C090FD03C091609D8311E08091800107
:100E3000909181019C012F5F3F4F4E9769F0309355
:100E4000810120938001812FDF91CF911F9108951F
:100E500090FFECCF9E7FE8CF10928101109280012D
:100E60000E947806F0CF8091140281608093140272
:100E70000C94A808CF93DF9300D000D0CDB7DEB795
:100E8000879A8F9A0E94432569837A838B839C83F8
:100E900060327C4E8D4E9E4F51F00E94AF250F90D8
:100EA0000F900F900F90DF91CF910C948D140F90B5
:100EB0000F900F900F90DF91CF91089560E27CEE3C
:100EC0008DEE9EEF0E9447256CE271E082E290E099
:100ED0000E94F13264EF71E084E290E00E94F1320E
:100EE0000C9453250F931F93CF93DF93CDB7DEB7A9
:100EF00028970FB6F894DEBF0FBECDBF8C0180914E
:100F0000FF0190910002A0910102B09102028D8335
:100F10009E83AF83B887BC01CD010E94B024D80165
:100F20009C91973009F47FC080F4923071F1933036
:100F300009F447C028960FB6F894DEBF0FBECDBFA8
:100F4000DF91CF911F910F910895983009F4C4C09B
:100F5000993081F740919E0150919F016091A001CD
:100F60007091A101F4E08F9FC001112486960E9428
:100F7000E53228960FB6F894DEBF0FBECDBFDF91E5
:100F8000CF911F910F910C94FE0DF80181818C3E41
:100F900089F6CE0101960E94BA0589819A81982727
:100FA00089279827D80113969C938E9312978B814B
:100FB0009C8198278927982715969C938E93149740
:100FC000B9CFF80181818C3E09F0B4CF2281338101
:100FD00032272327322784819581982789279827CC
:100FE000A901482359234F3F5F4FD1F48CE291E090
:100FF0009A83898384EF91E09C838B83CE01019651
:101000000E9460050B811C8169817A8182E290E0F7
:101010000E94F132B80184E290E00E94F1328ACF5E
:101020003A832983E9CF11968C911197823809F47C
:1010300045C0C8F4803809F1813809F07BCF129699
:101040008C910E940A12F801828181112BC028968E
:101050000FB6F894DEBF0FBECDBFDF91CF911F91C9
:101060000F910C94E912833809F064CF0E943A0F73
:10107000482FF8016381828109C0F80102810E9432
:10108000370F182F0E94340F402F612F28960FB66C
:10109000F894DEBF0FBECDBFDF91CF911F910F91AE
:1010A0000C94EB1028960FB6F894DEBF0FBECDBFA0
:1010B000DF91CF911F910F910C94721212968C9127
:1010C00028960FB6F894DEBF0FBECDBFDF91CF914B
:1010D0001F910F910C94310F11968C918238F1F081
:1010E00058F48038B1F0813809F024CF0E94A40E62
:1010F000D80112968C931ECF833809F01BCF0E9423
:10110000340FD80112968C930E94370FF801838315
:1011100011CF0E943A0FF80182830CCF0E94F20E89
:10112000FACF81E008959091140290FF10C01F92B1
:101130006F931F928F938CEF90E09F938F930E94F9
:10114000FE040F900F900F900F900F900F90089546
:1011500086E00C940A1281E008950C949108089599
:101160000C94AF081F93CF93DF9300D000D00F9261
:10117000CDB7DEB749835A836B833091B70189813C
:101180009A8131111DC06623B9F02223A9F00E9473
:101190006A23182F682F89819A810E9415236981FB
:1011A0007A81812F0F900F900F900F900F90DF9109
:1011B000CF911F910C94DA160E944223182FEFCF83
:1011C0000E946A2369817A81EDCFFC01262F40813C
:1011D00051816281738184810C94B208CF93DF9333
:1011E000D82FC92F60E00E94E5086D2F7C2FDF917A
:1011F000CF910C94B008FF920F931F93CF93DF937E
:10120000E82FF0E0E25AFE4FF490C82FC695C6953D
:10121000C695D0E0FE01E251FE4F0491877010E0C8
:10122000082E02C0159507950A94E2F70170112760
:10123000C252DE4FFE01C491D0E002C0D595C795E1
:101240008A95E2F7C170DD270115110519F081EECD
:101250000E94E41A209719F086EE0E94E41A8F2D5E
:101260000E94A31BCD2B19F086EE0E94541B012B6C
:1012700041F081EEDF91CF911F910F91FF900C947F
:10128000541BDF91CF911F910F91FF900895EF9222
:10129000FF920F931F93CF93DF93EC01162F0AE079
:1012A0008881882309F456C0813009F050C08981B3
:1012B0008130A1F47E0182E0E80EF11C8A810E9457
:1012C000A31BE7012196812F882351F3EFE9FFE06B
:1012D0003197F1F700C000008150F6CF823041F421
:1012E0007E01E2E0EE0EF11C8A810E94E41AE9CF51
:1012F000833041F47E01F2E0EF0EF11C8A810E94FE
:10130000541BDFCF843011F02196DCCF2A81229646
:1013100080E090E0AE014F5F5F4F2053330B2A30E7
:10132000310550F0009771F2EFE9FFE03197F1F7E6
:1013300000C000000197F6CF089FB001099F700D13
:101340001124C901860F971F2981EA01E3CF0E946A
:10135000FB08B8CFDF91CF911F910F91FF90EF90D5
:10136000089560E00C9447098F929F92AF92BF92CC
:10137000CF92DF92EF92FF920F931F93CF93DF9361
:1013800000D000D0CDB7DEB76B017C0181E090E0EA
:10139000A0E0B0E04C015D0104C0880C991CAA1CBF
:1013A000BB1C4A95D2F7B501A4014C015D0104C0F4
:1013B000880C991CAA1CBB1C2A95D2F748295929CC
:1013C0006A297B2904C0880F991FAA1FBB1F0A9591
:1013D000D2F78A019B010C211D212E213F210417E8
:1013E000150726073707F9F49C01AD012C293D2983
:1013F0004E295F2929833A834B835C8369817A81F3
:101400008B819C810F900F900F900F90DF91CF9167
:101410001F910F91FF90EF90DF90CF90BF90AF9012
:101420009F908F90089580959095A095B0954C01D0
:101430005D018C209D20AE20BF2089829A82AB82E4
:10144000BC82DCCF0F93CF93DF9300D000D0CDB719
:10145000DEB7262F042F4091FF01509100026091CA
:1014600001027091020249835A836B837C83482F67
:1014700069817A818B819C810E94B4090F900F90C1
:101480000F900F90DF91CF910F910C94CF210E947C
:101490001E270E941525811102C00E94AF250C94C1
:1014A000840C0C94870C08950C94530A81E00895E1
:1014B0000C94560ACF93C82F0E94540A8C2FCF91B8
:1014C0000C94580A08950E94451E0E94620A2FEF4C
:1014D00084E39CE0215080409040E1F700C0000090
:1014E0000C940B270F931F93CF93DF93EC0161E0D4
:1014F0000E94E5088C01BE010E94C114882371F18D
:10150000BE01C8010E94AD08882341F1BE01C80197
:101510000E941118882311F1BE01C8010E945518BC
:101520008823E1F0BE01C8010E9428198823B1F088
:10153000BE01C8010E947A13882381F08A81882322
:1015400041F101308CE5180779F00E3D8CE5180764
:10155000E9F001151C45E9F40E94630A80E0DF917F
:10156000CF911F910F91089590911402892F8E7F32
:1015700090FF81608093140280FF05C08DE491E0AC
:101580000E946504EBCF8BE391E0FACF0E94AF2578
:10159000E5CFCE01DF91CF911F910F910C94AB0855
:1015A000CF93DF930E94DA160E94A80BEC018115FD
:1015B00023E59207D0F5811532E5930708F0A0C026
:1015C000811540E29407D8F48F3F910509F060F44B
:1015D000853A910568F4049738F481E0219709F081
:1015E00080E0C82F80E0D82FCE01DF91CF91089501
:1015F000805E91090897C0F3D0E0C0E0F5CFC11537
:1016000091E5D90768F4CE01C11520E5D20708F0AD
:101610005BC090548115904178F7DF70D06AE4CFB9
:10162000DC2FCC27C16FD06ADFCF81159945A0F59B
:10163000C11588E5D80708F078C0C11595E5D90728
:10164000C8F4C11524E5D20708F06AC0CE01837042
:10165000992721E030E002C0220F331F8A95E2F77C
:10166000C695C69540E2C49FE0011124C22BD32B3E
:10167000DA68BACFCE0195558F3F910511F008F089
:10168000BBCF8C2F0E94400CC82FD0E0DC2FCC2782
:10169000CC27DF71D062A8CFC1158AE5D80708F43E
:1016A00049C0CE0190568115904208F0A5CF8D2FEC
:1016B0008F710E94400C90E0982F882788279F7197
:1016C0009C012C2BE901E6CF74E0969587957A95DD
:1016D000E1F783702C2F26952695237040E2249FF6
:1016E00090011124382B8C2F8370C1E0D0E002C010
:1016F000CC0FDD1F8A95E2F7C22BD32BDC6874CFA9
:101700008370992721E030E002C0220F331F8A95B1
:10171000E2F7C695C69580E2C89FE0011124ECCFA0
:10172000DC2FCC27C46FD06A5FCFDC2FCC27C06FF3
:10173000D06A5ACF8C2F8F700E94400C34E0D6951F
:10174000C7953A95E1F7CF70DC2FC82FD0694CCF01
:10175000803E910599F1C8F48133910509F476C072
:1017600048F48932910509F46AC08A32910509F476
:1017700074C0089589339105D1F082389105B9F08C
:101780008533910509F454C00895843E910599F17B
:1017900038F4823E9105F9F0833E910509F10895F0
:1017A000863E910599F1873E9105B9F10895209102
:1017B0001C022370A1F080EE90E0089520911C029D
:1017C00020FD52C030911D0230FF09C024FF4FC0E0
:1017D00090E080E004C020911C0222FDF7CF089524
:1017E00020911C0222FD46C030911D0230FDE3CF46
:1017F00024FFF5CFEDCF20911D0221FFF0CF809186
:101800001C0284FDE5CF87EE90E0089520911C0234
:1018100023FFE5CF24FDDCCFF6CF20911C0223FD72
:101820002CC030911D0231FFE3CF84EE90E008958B
:1018300020911C0225FFD3CF89E290E008952091EA
:101840001C0225FFCCCF85E390E0089520911C0277
:1018500026FFC5CF8AE290E0089520911C0226FF62
:10186000BECF81E390E0089589E390E0089583EE90
:1018700090E0089582EE90E0089586EE90E008955D
:1018800090911C0292FF06C0282F28712830F9F48D
:10189000877F846093FF06C0282F28712831F1F4D8
:1018A000877E846120911D0220FF06C0382F387189
:1018B0003830D9F4877F816021FF06C0282F287136
:1018C0002831D1F4877E816194FD877E0895282F89
:1018D00024712430F9F68B7F8860DCCF282F2471A7
:1018E000243101F78B7E8861DDCF382F31713130A3
:1018F00019F78E7F8860E0CF282F2171213121F7E1
:101900008E7E8861E1CF08950C94830C08950C9429
:10191000860CE82FF0E0EE57FE4F80810895CF92BD
:10192000DF92EF92FF920F931F93CF93DF938DE09F
:1019300092E00E94650482E8E82E81E0F82ED0E073
:10194000C0E098E0C92E92E0D92E00E012E0DF93CB
:10195000CF93DF92CF920E94FE0485E092E00E9436
:101960006504F70181917F010E94FB241F928F93F0
:101970001F930F930E94FE048EEF91E00E94650476
:1019800021968DB79EB708960FB6F8949EBF0FBEEE
:101990008DBFC630D105D9F6DF91CF911F910F9140
:1019A000FF90EF90DF90CF9008950E94E80686E0C8
:1019B000E8E8F1E0DF01982F1D929A95E9F7E2E857
:1019C000F1E0DF011D928A95E9F786E00E94FD0CA7
:1019D0000C94470ACF9388E891E00E940707C82F2C
:1019E000282F46E062E871E088E891E00E94FE0C52
:1019F0000E94510A8C2FCF9108950895FF920F9362
:101A00001F93CF93DF93F82E092F162FD72FC42FB4
:101A1000222349F081E0809390010E94AC269093AC
:101A20008F0180938E01809190018823A1F0809195
:101A30008E0190918F010E94D826069760F0EF2DBD
:101A4000F02FA12FBD2FCF018C0F911DE817F907A3
:101A500041F410929001DF91CF911F910F91FF906F
:101A6000089521912D93F2CFAF92BF92CF92DF9242
:101A7000EF92FF920F931F93CF93DF93362F472F51
:101A8000E82FF0E0E057FA4F71110EC06491762F05
:101A9000862FDF91CF911F910F91FF90EF90DF90F4
:101AA000CF90BF90AF900895C72FD0E0249186E0EB
:101AB000689F700111240FEF10E0C701B8010E9468
:101AC0007D32832F90E0880F991F35E5369FF00116
:101AD000379FF00D11248E1B9F0B982F990F980F95
:101AE000F801EC1BFD0B2E9FD0012F9FB00D112490
:101AF000EB2F949FA0011124452F55276801C41A8C
:101B0000D50AA601249F6001259FD00C11248D2D9C
:101B10005801A91AB108AC9EA001AD9E500DBC9E03
:101B2000500D1124452F5527041B150B209FA00194
:101B3000219F500D112463307105D9F09CEFE916F7
:101B400093E0F90668F461307105B9F0623071050F
:101B5000C1F09FEFE916F10448F48B2FE52F06C082
:101B60006430710589F066307105B9F36E2F722FFC
:101B700090CFED2D822F2B2FF9CFE22F2D2D8B2FF4
:101B8000F5CF852FE22FF7CF822F252FEFCF0895A6
:101B9000CF93DF93982F762F842FE901692F0E942E
:101BA000340D798368838A83DF91CF910895809182
:101BB0009E01982F9E7F29F48170826080939E0100
:101BC00008958E30E8F381708C60F8CF88E090E063
:101BD0000C94C7320F931F93CF93DF938B01D82FB1
:101BE000C92F0E94D70DA8016D2F7C2F88E090E0AF
:101BF000DF91CF911F910F910C94E532CF93DF933A
:101C000000D000D0CDB7DEB780919E0190919F01AA
:101C1000A091A001B091A10189839A83AB83BC8379
:101C2000BC01CD010F900F900F900F90DF91CF91DD
:101C30000C94EA0DEEE9F1E083E0808311828FEFEE
:101C400082838383148263E070E08FEF9FEF0C94B4
:101C5000EA0D8091140280FF76C081E795E09F93A2
:101C60008F930E94FE04809114020F900F9080FFCA
:101C70006AC080919E0181701F928F9384E595E0E8
:101C80009F938F930E94FE04809114020F900F90F7
:101C90000F900F9080FF57C080919E0186951F92F4
:101CA0008F9389E395E09F938F930E94FE04809128
:101CB00014020F900F900F900F9080FF44C08091FE
:101CC0009F011F928F938FE195E09F938F930E94C6
:101CD000FE04809114020F900F900F900F9080FFE0
:101CE00032C08091A0011F928F9385E095E09F9371
:101CF0008F930E94FE04809114020F900F900F901A
:101D00000F9080FF20C08091A1011F928F938BEED6
:101D100094E09F938F930E94FE04809114020F9091
:101D20000F900F900F9080FF0EC08091A2011F9224
:101D30008F938FEC94E09F938F930E94FE040F90FB
:101D40000F900F900F90089580919E0180FF02C028
:101D50008695089580E00895CF93DF9300D000D05A
:101D6000CDB7DEB78091A201833018F48F5F8093E6
:101D7000A20180919E0190919F01A091A001B0913C
:101D8000A10189839A83AB83BC83BC01CD010F90F1
:101D90000F900F900F90DF91CF910C94EA0DCF939D
:101DA000DF9300D000D0CDB7DEB78091A2018823A9
:101DB00019F081508093A20180919E0190919F0122
:101DC000A091A001B091A10189839A83AB83BC83C8
:101DD000BC01CD010F900F900F900F90DF91CF912C
:101DE0000C94EA0D8091A2010895CF93DF9300D067
:101DF00000D0CDB7DEB78093A201662349F1809170
:101E00009E0190919F01A091A001B091A1018983B1
:101E10009A83AB83BC83BC01CD010E94EA0D809103
:101E2000140280FF0EC08091A2011F928F9381E760
:101E300092E09F938F930E94FE040F900F900F905B
:101E40000F900F900F900F900F90DF91CF9108950A
:101E50009091140290FFF5CF1F928F938EE492E041
:101E6000E8CF60E00C94F50E80919F010895809179
:101E7000A00108958091A101089570E00C94D713FA
:101E80006091020180919E0180FF0AC08091010152
:101E900023E0829FC00111248E569E4F0C943D0F6B
:101EA000E091030180910401E81780F78E2F90E004
:101EB000FC01EE0FFF1FE80FF91FEE56FE4F1182D7
:101EC00010821282E3CF90919E0190FF14C0E091A6
:101ED000030190910401E91760F42E2F30E0F9011D
:101EE000EE0FFF1FE20FF31FEE56FE4F818360835C
:101EF00042830C94400F0895CF93DF9300D00F924C
:101F0000CDB7DEB790919E0190FF0AC09E012F5F72
:101F10003F4F0E94C80D4B8169818A810E94630FE7
:101F20000F900F900F90DF91CF910895CF93DF9393
:101F300000D000D000D0CDB7DEB78D839E83ED8179
:101F4000FE818481282F30E050E040E029833A83ED
:101F50004B835C83CA01B9010E94723020E030E0FB
:101F60004FE753E469837A838B839C8369817A8109
:101F70008B819C810E94952F2BED3FE049E450E43A
:101F800069837A838B839C8369817A818B819C812D
:101F90000E949B3169837A838B839C8369817A81D8
:101FA0008B819C810E94083269837A838B839C8316
:101FB00069817A818B819C810E940F302BE43AE306
:101FC0004EE25FE369837A838B839C8369817A81A4
:101FD0008B819C810E94282F20EF3BEF48ED52E43B
:101FE00069837A838B839C8369817A818B819C81CD
:101FF0000E949B3169837A838B839C8369817A8178
:102000008B819C810E944130462FEEE9F1E0628194
:1020100081810E947C0FED81FE8184818F5F8483AA
:1020200026960FB6F894DEBF0FBECDBFDF91CF91DD
:102030000895EF92FF920F931F93CF93DF9300D0F9
:1020400000D000D00F92CDB7DEB7082FF62E142F98
:10205000E22E80919E0180FF4AC0E82FE695F0E0D5
:10206000EC5DFE4F908190939C018E7F823009F051
:102070004BC09E012F5F3F4F802F0E94C80D4B81A8
:1020800069818A810E94630F00939F01F092A001F1
:102090001093A101EE20F1F180919E0190919F019A
:1020A000A091A001B091A1018C839D83AE83BF83D9
:1020B000BC01CD010E94EA0D8091140280FF17C07F
:1020C0008091A1011F928F938091A0011F928F9305
:1020D00080919F011F928F9389EB92E09F938F9342
:1020E0000E94FE040FB6F894DEBF0FBECDBF279648
:1020F0000FB6F894DEBF0FBECDBFDF91CF911F9119
:102100000F91FF90EF900895923009F0BDCF10919C
:10211000A101BACF8091140280FFE9CF1F921F93D3
:102120001F92FF921F920F9382E992E0D7CF282F40
:10213000EEE9F1E0818143816281885F0C9419109E
:1021400081E00C949710282FEEE9F1E08181438122
:10215000628188500C94191081E00C94A310282FF0
:10216000EEE9F1E0628138E0630F08F46FEF43813C
:1021700081810C94191081E00C94AF10282FEEE9A6
:10218000F1E0628138E0631B08F460E04381818103
:102190000C94191081E00C94BE10282FEEE9F1E0A8
:1021A000438138E0430F08F44FEF628181810C9442
:1021B000191081E00C94CD10282FEEE9F1E0438155
:1021C00038E0431B08F440E0628181810C941910CF
:1021D00081E00C94DC1020E00C9419100F931F93F5
:1021E000CF93DF9300D00F92CDB7DEB78C018091F3
:1021F000910181110AC09E012F5F3F4F4FEF6FEF9A
:102200000E94C80D8A8180939101F8016481613038
:1022100049F06230F1F08091910140E0662331F0A5
:1022200040E019C06091910140E080E00E94630F9E
:10223000F801848190E0019663E070E00E949132A1
:1022400084830F900F900F90DF91CF911F910F918A
:1022500008954091910180E060E0E8CF60919E0197
:10226000669570E041E050E086E091E00E94B23275
:10227000892B19F481E080939D010E94AC269093F4
:102280009601809395018091140280FF08C085E338
:1022900092E09F938F930E94FE040F900F900895F9
:1022A00010929D018091140280FF08C08CE192E0A1
:1022B0009F938F930E94FE040F900F900895CF93E9
:1022C000DF9300D000D0CDB7DEB790919E0190FF94
:1022D00061C09170811148C0926090939E01662305
:1022E00009F449C080919E0190919F01A091A001A5
:1022F000B091A10189839A83AB83BC83BC01CD01DA
:102300000E94EA0D8091140280FF0FC080919E010F
:1023100086951F928F9385E194E09F938F930E94FF
:10232000FE040F900F900F900F9060919E016695A4
:1023300070E041E050E086E091E00E94B232892BEB
:1023400031F10E94501181E0809398014091A101E8
:102350006091A00180919F010F900F900F900F90BE
:10236000DF91CF910C94EB10873010F09C60B5CFCB
:10237000880F982BB2CF8091140280FFD6CF809126
:102380009E0186951F928F9387EF93E0C6CF0E94A0
:102390002E11D9CF0F900F900F900F90DF91CF910A
:1023A0000895682F80919E0186958F5F873008F091
:1023B00081E00C945F1181E00C94D111682F909111
:1023C0009E0196958FEF890F913009F486E00C9469
:1023D0005F1181E00C94DE1161E00C945F1180913B
:1023E0009E01816080939E018091140280FF0DC048
:1023F0001F9281E08F9389E893E09F938F930E94CF
:10240000FE040F900F900F900F9080919E01869583
:102410000C94EC1160E00C945F1180919B01811190
:1024200060C08091140280FF14C088EB94E09F93F9
:102430008F930E94FE04809114020F900F9080FFF2
:1024400008C082EA94E09F938F930E94FE040F904D
:102450000F900E941525811110C08091140280FFF9
:1024600008C08AE794E09F938F930E94FE040F9028
:102470000F900E94AF250E941A0E0E94E60D6093F5
:102480009E0170939F018093A0019093A1016E7FA4
:10249000C1F48091140280FF08C081E394E09F930F
:1024A0008F930E94FE040F900F900E941A0E0E94BC
:1024B000E60D60939E0170939F018093A00190931D
:1024C000A1010E94D70D0E94290E10929D018091BA
:1024D0009E0180FF03C086950E940A1281E08093CE
:1024E0009B01089580919E01816080939E0180915F
:1024F000140280FF0DC01F9281E08F9380E593E06E
:102500009F938F930E94FE040F900F900F900F9057
:1025100080919E0186950C940A12CF93DF9300D090
:1025200000D0CDB7DEB780919E018E7F80939E0153
:1025300080919E0190919F01A091A001B091A10175
:1025400089839A83AB83BC83BC01CD010E94EA0DD1
:102550008091140280FF0FC080919E0181701F92B4
:102560008F9388E193E09F938F930E94FE040F90D6
:102570000F900F900F900E9450119FEFA0E7B2E0D4
:102580009150A040B040E1F700C000000F900F90C4
:102590000F900F90DF91CF910C94400F8091140217
:1025A00080FF10C080919E01809581701F928F9353
:1025B00080EC93E09F938F930E94FE040F900F9006
:1025C0000F900F9080919E0180FD0C948D120C94C1
:1025D000EF1180919E018E7F80939E018091140265
:1025E00080FF0CC01F921F928EED92E09F938F93FD
:1025F0000E94FE040F900F900F900F900E945011B8
:102600002FEF80E792E0215080409040E1F700C03A
:1026100000000C94400F0F931F93CF93DF93809192
:102620009D01882309F44FC080919C01E0919E0197
:10263000E695E81BE09397018230C1F5F0E0E4579E
:10264000FA4FE491CE2FD0E006E91FE08091980187
:10265000882389F0109298010E94AC269E01209553
:102660003095280F391F30939601209395011092D1
:102670009A011092990180919501909196010E9482
:10268000D8268C179D07F8F0E0919501F0919601FE
:10269000CE0FDF1FD0939601C093950185E991E09D
:1026A000F801DF91CF911F910F910994C0EDD7E010
:1026B00007EC1DE0863051F6EAE8F5E0C591D491CB
:1026C0000EEE10E1C3CFDF91CF911F910F910895CE
:1026D000FA0181110994FB01FDCF0E94A40E823002
:1026E00030F00E94A40E853010F40C94DB1182E0CF
:1026F0000C94EC110F931F93CF938C01FB01C281BB
:10270000CC2309F452C00E9407248272F801E25CD3
:10271000FC45E431F10538F4E75FFC4C0C94A5323C
:102720000E94CE12C0E08C2FCF911F910F9108957F
:1027300049EE51E16BED71E10E946813F3CF4BED6F
:1027400051E169EE71E1F8CF4CEA50E160EA70E1E5
:10275000F3CF40EA50E16CEA70E1EECF4AEC50E191
:102760006BEB70E1E9CF4BEB50E16AEC70E1E4CF49
:1027700048EE50E169ED70E1DFCF49ED50E168EEE0
:1027800070E1DACF4FEC5EE06CEA7EE0D5CF4CEA48
:102790005EE06FEC7EE0D0CF81E00E94EC11C2CF12
:1027A0000E946D13BFCF86E0F8CFC1E0BCCF9C0183
:1027B000AB01529A6BB16B7F7BB17460EFB7F89449
:1027C000CA01880F991F840F951F820F931F8217CC
:1027D000930741F4EFBF8FE594E00197F1F700C054
:1027E00000000895D9014D919D0158E07BB900008A
:1027F00000C047FF6BB9440F000000C000C000C01C
:102800006BB900C05A9591F7E2CF0C9493082398C6
:102810002B9A22982A9A83B183FB882780F91A99E8
:1028200005C090E0892B8093A501089592E0FACF2E
:10283000E091A501EE0FEE0FE093A50143B143FB3C
:10284000882780F943B142FB222720F942FF02C0CA
:1028500022E030E0822BE82BE093A501EF70F0E05E
:10286000E55DFE4F80819091A401890F8093A401C2
:1028700084304CF08091A3018F5F8093A30160E0CE
:1028800080E00E9405148091A4018D3F4CF480915A
:10289000A30181508093A30161E080E00E940514B0
:1028A0009091A401892F837897FF03C081508C6F8A
:1028B0008F5F8093A401089586E490E00E94BF3268
:1028C000813289F487E490E00E94BF32843059F469
:1028D00088E490E00E94BF3291E0843209F090E0F9
:1028E000892F8170089580E0FCCFCF93C82F6FEFC0
:1028F000811161E286E490E00E94D3326FEFC11152
:1029000064E087E490E00E94D3326FEFC11164E28B
:1029100088E490E0CF910C94D33280E00E9475144B
:102920000C940F250895CF93DF9300D000D0CDB73E
:10293000DEB789E490E00E94BF32282F30E050E0FB
:1029400040E0CA01B9010F900F900F900F90DF91F6
:10295000CF91089589E490E00C94D3320E949214B0
:102960000E945C1481110CC060E070E0CB010E94F9
:10297000AA140E9459160E94341781E00C94751411
:102980000895CF939C01FB01C281CC2301F18251B8
:102990009F45409720F58EEE820F0E944417C0E0BD
:1029A0008C2FCF91089581E00E94052243E062E0E0
:1029B00081E00E94220AF3CF81E00E94362243E0A8
:1029C00062E081E00E94220AEBCF82E0F6CF803104
:1029D0009F4591F321313F45C1F3C1E0E1CF203163
:1029E000EFE53E0701F382E021313F45E9F2D8CF20
:1029F000EF92FF920F931F93CF93DF93CDB7DEB784
:102A00002E970FB6F894DEBF0FBECDBF8D839E8389
:102A1000162FAD81BE81EC91E150E33108F002C187
:102A2000F0E0E35EFC4C0C94A532ED81FE81118256
:102A300089E08283612F8D819E812E960FB6F89456
:102A4000DEBF0FBECDBFDF91CF911F910F91FF90E1
:102A5000EF900C94FA27AD81BE8111968C91823053
:102A600099F0833011F1813081F50E94B8260E94DF
:102A7000AB326F83788789879A87ED81FE81628385
:102A8000738384839583D6CF0E9493140E94AB32C4
:102A90006B877C878D879E87AD81BE8112966D93F3
:102AA0007D938D939C931597C5CFED80FE80B2E00A
:102AB000EB0EF11C00E0802F0E94890CF70181933E
:102AC0007F010F5F0630B9F7B5CF612F8D819E81F1
:102AD0000E947207AFCFAD81BE8111968C91119784
:102AE000823099F712968D919D910D90BC91A02DF9
:102AF00089839A83AB83BC83BC01CD010E94AB3236
:102B00000E94AA1497CFED81FE8143816281818169
:102B10000E942B16982789279827AD81BE8115968C
:102B20009C938E93149786CFED81FE81248135810D
:102B30003227232732274381628181810E944416F4
:102B400079CF0E94591676CF0E94E716AD81BE81DB
:102B500011968C936FCF0E94E916982789279827A2
:102B6000ED81FE819283818365CFAD81BE81139615
:102B70006C91139770E011968D919C911297AD0115
:102B80004C5F5F4F9827892798270E94EC1652CFF9
:102B9000ED81FE81638170E081819281AF014C5FA4
:102BA0005F4F9827892798270E94111743CF0E94CB
:102BB000341740CF0E941716C9CFED81FE81638183
:102BC00070E081819281AF014C5F5F4F9827892728
:102BD00098270E9492162ECFAD81BE8113966C91DC
:102BE000139770E011968D919C911297AD014C5FF7
:102BF0005F4F9827892798270E94B7161BCF0E94FE
:102C00008D1418CF8D819E810E94FA27BFEFE1EECF
:102C1000F4E0B150E040F040E1F700C000000E9455
:102C20000B2708CF8FEFAD81BE818C9303CF88E057
:102C3000089598E0699FB001112450E0440F551F9A
:102C4000640F751F90E3899F600D711D1124CB01E6
:102C5000865B9F4F08950F931F93CF93DF930E943E
:102C600019168C010E94BF32C82FD0E0DC2FCC2770
:102C7000C80101960E94BF329E01282BC901DF9135
:102C8000CF911F910F9108950F931F93CF93DF93CF
:102C9000122F032F0E941916EC01602F0E94D332CD
:102CA000612FCE010196DF91CF911F910F910C946E
:102CB000D332AF92BF92CF92DF92FF920F931F93C6
:102CC000CF93DF93B12CA12C00E0650110E013C07D
:102CD000FE01259134914F2D612F802F0E944416C3
:102CE0002296F39484E0F812F3CF84E0C80ED11C4E
:102CF0001F5F163039F0E601CC0FDD1FC55FDE4FD8
:102D0000F12CE6CF0F5F88E1A80EB11C0830E9F680
:102D1000DF91CF911F910F91FF90DF90CF90BF90E7
:102D2000AF900895EF92FF920F931F93CF93DF938D
:102D30008C01EA017A01E60EF71EC801865B9F4FFF
:102D4000CE15DF0539F4DF91CF911F910F91FF90E0
:102D5000EF900895003821E0120738F40E94BF3246
:102D6000888321960F5F1F4FE8CF1882FACFEF922A
:102D7000FF920F931F93CF93DF938C01EA017A01A7
:102D8000E60EF71EC801865B9F4FCE15DF0539F4AE
:102D9000DF91CF911F910F91FF90EF900895003830
:102DA00021E0120718F468810E94D33221960F5F48
:102DB0001F4FE8CF462F672F883030F4763020F44D
:102DC000443010F40C942B1690E080E0089580E1DC
:102DD000089586E392E00895EF92FF920F931F9378
:102DE000CF93DF938C01EA017A01E60EF71EC8014A
:102DF00086539E4FCE15DF0539F4DF91CF911F9199
:102E00000F91FF90EF900895063322E0120738F4F7
:102E10000E94BF32888321960F5F1F4FE8CF188230
:102E2000FACFEF92FF920F931F93CF93DF938C0112
:102E3000EA017A01E60EF71EC80186539E4FCE15B1
:102E4000DF0539F4DF91CF911F910F91FF90EF9043
:102E50000895063322E0120718F468810E94D332E5
:102E600021960F5F1F4FE8CFCF93DF93CAECD1E0DD
:102E700060E0CE010E94D3322196C11584E0D807CC
:102E8000B9F7DF91CF910895DF92EF92FF920F9300
:102E90001F93CF93DF9300D000D0CDB7DEB7F82ECD
:102EA0008FE08F1540F08FEF93E00E94BF320AEC65
:102EB00011E08823C1F00F900F900F900F90DF91D9
:102EC000CF911F910F91FF90EF90DF900895011522
:102ED00084E0180781F3C8010E94BF32811101C04C
:102EE000FA940F5F1F4FF110F2CF8091140190916F
:102EF0001501A0911601B091170189839A83AB83C4
:102F0000BC83DD24D39478018FEFE81AF80AC80156
:102F10000E94BF3289831A82882369F29FEF980F3B
:102F2000933080F48A83D9820E5F1F4FC7010E94BD
:102F3000BF328B83882309F4BECFCE0101960E9455
:102F4000B109E1CF8701F9CF0F931F93CF93DF939F
:102F5000C62FD42F022FFC0182818823C9F06093F1
:102F6000A8010E94AC269093A7018093A60180E25D
:102F70008C0F883008F050C0C77081E001C0880F06
:102F8000CA95EAF7DF91CF911F910F910C94B61B70
:102F90001091A801161335C08091A6019091A70148
:102FA0000E94D826883C910560F5C0E2CD0F1D1720
:102FB000B9F080E2810F883040F4177081E001C0E1
:102FC000880F1A95EAF70E94BD1BC83048F481E0CB
:102FD0009D2F977001C0880F9A95EAF70E94B61B43
:102FE000802F0E94A31BC830B8F4D77081E001C0C5
:102FF000880FDA95EAF7DF91CF911F910F910C942A
:10300000BD1B80E28C0F883038F4C77081E001C0AE
:10301000880FCA95EAF7EFCFDF91CF911F910F91FB
:1030200008959C01CB01233F4CE5340769F190F4EE
:10303000283DFCE53F0721F1293D4CE5340781F1AE
:10304000273D3C45B1F0FC018281882361F110925B
:10305000A8010895253FFCE53F07D1F0263F4CE548
:103060003407D1F0243F3C4571F727E245EE64EE8A
:1030700003C026E241EE61EE0E94A41780E00895AD
:1030800027E245EE65EEF8CF26E241EE60EEF4CFA2
:1030900026E241EE62EEF0CF27E245EE66EEECCF9F
:1030A00028E241E0EFCF81E00895CF93DF93EC0178
:1030B000FB018281882309F4C9C0C631FCE5DF0722
:1030C000E0F4C2309CE5D907F0F00E9428259093E7
:1030D0001D0280931C02C631ECE5DE0720F5C230EC
:1030E000FCE5DF0798F480911C0290911D020E947C
:1030F00036250E94451E80E006C09E012A5F3C45A1
:103100002930310510F3DF91CF910895FE01E3508E
:10311000FC4580911C028160E331F10588F4E05D9B
:10312000FC4C0C94A532CA5FDC45C930D105D8F6F9
:10313000CD5BDC4CFE010C94A53280911C028260B8
:1031400080931C02D0CF80911C028460F9CF8091C3
:103150001C028860F5CF80911D02816080931D0262
:10316000C2CF80911D028260F9CF80911C028061E4
:10317000E7CF80911C028062E3CF80911C028064C3
:10318000DFCF0E94451E80911C028068D9CF8091BC
:103190001C028C60D5CF80911D028360DFCF8091AF
:1031A0001C028E7FCDCF80911C028D7FC9CF809174
:1031B0001C028B7FC5CF80911C02877FC1CF80917D
:1031C0001D028E7FCBCF80911D028D7FC7CF809156
:1031D0001C028F7EB5CF80911C028F7DB1CF809174
:1031E0001C028F7BADCF0E94451E80911C028F7701
:1031F000A7CF80911C02837FA3CF80911D028C7F7B
:10320000ADCF80911C0282FB992790F921E0922793
:1032100090FB82F990FB83F993CF80911D02982F48
:10322000909591708E7F892B90FB81F997CF0E94AA
:10323000451E90911C02892F97FB87F9805880CFFB
:1032400081E00E94B1254FCF80E0FBCF81E05BCFD2
:10325000CF93DF93EB0186319C4511F50E94072443
:103260009A81992399F08A7A91E009F490E09093F9
:10327000A901811109C089E20E94E2230E94482429
:1032800080E0DF91CF91089585E3F6CF8091A90189
:10329000811104C089E20E94E923F0CF85E3FBCFCE
:1032A00081E0EFCF9093AF018093AE010895E0915C
:1032B000AE01F091AF01309721F00190F081E02D47
:1032C000099480E00895EF92FF920F931F93CF939C
:1032D000DF938C01E091AE01F091AF013097B1F135
:1032E0000280F381E02D09958091140282FF2EC0A7
:1032F00080FF04C088E996E00E946504E801780137
:1033000088E0E80EF11C02E916E08091140280FFCB
:103310000BC088811F928F931F930F930E94FE040E
:103320000F900F900F900F902196CE15DF0569F743
:103330008091140280FF0AC080E996E0DF91CF916E
:103340001F910F91FF90EF900C946504DF91CF9146
:103350001F910F91FF90EF9008952091AC01309153
:10336000AD012817390771F09093AD018093AC013E
:10337000E091AE01F091AF01309721F00680F78126
:10338000E02D099408952091AA013091AB012817EE
:10339000390771F09093AB018093AA01E091AE01DF
:1033A000F091AF01309721F00084F185E02D099470
:1033B000089585B7806885BF85B7806885BF089503
:1033C00008950E94D9190E94E0190C943A0781E0EF
:1033D00008950C94E7190E94A3260E94D50C0E9420
:1033E000AE140E9432270E940D120E9407140C9402
:1033F0003307CF93C82F8091140282FF1EC080FF35
:103400001CC081EB96E00E9465048091140280FF4D
:1034100014C01F92CF938CEA96E09F938F930E94E3
:10342000FE04809114020F900F900F900F9080FF78
:1034300004C08AEA96E00E9465048C2FCF910C9418
:103440005A0ABF92CF92DF92EF92FF920F931F938F
:10345000CF93DF9300D000D00F92CDB7DEB70E949C
:10346000EA0C0E94E919882309F460C081EBC82E98
:1034700081E0D82E10E000E0B02E802F0E94890C51
:10348000F82EF601E1906F01E81609F449C0809129
:10349000140281FD0E948F0C9E2D9F2580E0EE245A
:1034A000E394292F2E21B9F18983BA82FE2081E08D
:1034B00009F480E08B830E94AC268160782F9D8385
:1034C0008C8349815A816B818D810E94B61AF801E3
:1034D000EF54FE4F8081E826E0820E940B130E9489
:1034E00018140E9457199091B001891781F10E9418
:1034F00057198093B0010F900F900F900F900F907D
:10350000DF91CF911F910F91FF90EF90DF90CF90BF
:10351000BF900C94F9198F5FEE0C843009F0C1CF85
:103520000F5F1F4F0630110509F0A6CF8FEF89837B
:103530008A831B820E94AC268160782F9D838C83B6
:1035400049815A816B818D810E94B61AC6CF0F9036
:103550000F900F900F900F90DF91CF911F910F91CF
:10356000FF90EF90DF90CF90BF900895CF93DF93BF
:10357000CDB7DEB72B970FB6F894DEBF0FBECDBF29
:103580004F83588769877A878B871E8285E0FE0183
:103590003796DE01119601900D928A95E1F74981E7
:1035A0005A816B817C818D819E812B960FB6F89418
:1035B000DEBF0FBECDBFDF91CF910C94A720FC01E1
:1035C000808191810C94AC23CF93C82F882309F478
:1035D00069C08238C1F40E94571981FD63C089E334
:1035E0000E94E2230E9448242FEF81EE94E02150B4
:1035F00080409040E1F700C0000089E30E94E92389
:10360000CF910C9448248338A1F40E94571980FD6F
:1036100049C083E50E94E2230E9448242FEF81EEF7
:1036200094E0215080409040E1F700C0000083E525
:10363000E5CF8438A1F40E94571982FD33C087E496
:103640000E94E2230E9448242FEF81EE94E0215053
:1036500080409040E1F700C0000087E4CFCF8CEFBE
:103660008C0F813A90F46C2F8091070190910801A2
:103670000E94C825882329F08C2F0E94E9230E94EC
:1036800048248C2F0E94E223BBCF80E28C0F88302D
:1036900048F4C77081E001C0880FCA95EAF70E941C
:1036A0000A24AECFCF910895882309F44BC0823805
:1036B00071F40E94571981FF45C089E30E94E223FB
:1036C0000E94482489E30E94E9230C94482483380B
:1036D00059F40E94571980FF35C083E50E94E22308
:1036E0000E94482483E5EFCF843859F40E9457198B
:1036F00082FF28C087E40E94E2230E94482487E4D6
:10370000E2CF9CEF980F913AF0F290E2980F983048
:1037100050F4877091E001C0990F8A95EAF7892FDC
:103720000E941024D2CF9BE5980F933020F490E0B4
:1037300080E00C94AD19885A873120F490E080E045
:103740000C94C3190895CF93C82F0E94E41AC9336B
:1037500049F42FEF87EE93E0215080409040E1F74D
:1037600000C000008C2FCF910C94541B882321F0B3
:103770000E940A240C9448240895882321F00E9472
:1037800010240C9448240895BF92CF92DF92EF92B8
:10379000FF920F931F93CF93DF9300D000D00F922F
:1037A000CDB7DEB76C016D837983FC01158112956D
:1037B0001F70028101110E9429240E940024E82E1A
:1037C0008823A1F0002309F450C08981807F8034D0
:1037D00029F08D81805E883008F447C082E00E9425
:1037E00093240E94002491E0E82EE926B980B29447
:1037F0009FE0B922F8E0BF1609F4D7C0FB15B8F175
:1038000021E02B1508F046C08EE08B0D8F708230C2
:1038100008F476C0EB2DE850FF0B349720F40E949B
:1038200057190E945A0AEE2009F4D7C10E94FC23BE
:1038300080FDD3C1F60112820E94F6230E94052268
:10384000C6010E94131E0E94F6230F900F900F9046
:103850000F900F90DF91CF911F910F91FF90EF90FC
:10386000DF90CF90BF900C943622E12CBFCF39E08F
:10387000B31609F446C186E08B0D8F70823050F686
:103880008D81823F09F04EC189818F71002309F437
:103890007CC145C119811F709981907F11F01295EB
:1038A000107F0023B1F0112361F08D81805E88309C
:1038B00018F00D81011109C0812F0E940A240E9475
:1038C00048248D810E94E41AA5CF812F0E941B24D9
:1038D000F6CF8D810E94541B112309F49BCF8D815B
:1038E000805E883018F00D81011106C0812F0E9482
:1038F00010240E9448248ECF812F0E942124F9CFCA
:1039000029812F70F22E3981307F303219F0F294F4
:1039100080EFF8228D81882369F0813049F10023FE
:1039200091F1112351F1F601858180FFCACF8F708B
:10393000858323C0002381F0111106C00E942F242B
:103940008F290E94B61B66CF1130C1F70E942F2429
:103950008F290E9435245ECF111106C00E943E249B
:103960008F2D0E94BD1B56CF113009F453CFF6CFD7
:10397000002329F0163008F04DCF8F2DE2CF1530FF
:1039800008F048CFEDCF112359F30D81093349F4E5
:103990001FEF27EE33E0115020403040E1F700C028
:1039A00000008D810E94541B35CF8981837009F0FE
:1039B00050C001112FCF2D81229526952770220FFF
:1039C000220F8D818F7090E0B0E0A0E0022E04C045
:1039D000880F991FAA1FBB1F0A94D2F70D8140E0E0
:1039E00050E0BA0104FF0FC04FE050E060E070E02B
:1039F00004C0440F551F661F771F2A95D2F74095C4
:103A000050956095709519811695169513701D83C4
:103A10008A019B01082B192B2A2B3B2B09831A8324
:103A20002B833C831D8169817A818B819C8112303B
:103A300051F0133059F0113019F00E947B21EACE79
:103A40000E945321E7CE0E94A321E4CE0E9451217F
:103A5000E1CE002309F448C0098100FFDBCE2D81AF
:103A6000229526952770220F220F8D818F7090E06E
:103A7000B0E0A0E0022E04C0880F991FAA1FBB1F50
:103A80000A94D2F70D8140E050E0BA0104FF0FC064
:103A90004FE050E060E070E004C0440F551F661F27
:103AA000771F2A95D2F740955095609570951981AA
:103AB0001695169513701D838A019B01082B192BEF
:103AC0002A2B3B2B09831A832B833C831D8169811D
:103AD0007A818B819C81123071F0133079F0113032
:103AE00039F00E94C42296CE198111FF93CEB7CF30
:103AF0000E949C228FCE0E94EC228CCE0E94CF216D
:103B000089CE19811F701983002329F0812F0E940B
:103B100005228D8116CF8D810E94BD1B89810E9457
:103B2000362278CE2D81233F60F4203FE1F0213F03
:103B300041F1002309F440C01111C3CE89818F7176
:103B400024C03D81333F21F1343F99F7002351F1E7
:103B500009810F710983802F0E94052263E089810A
:103B60000E947E2457CE002341F0153008F052CE3B
:103B700089818F710E946B224DCE163008F04ACE9B
:103B8000F7CF89818F71002351F20E94052242CE26
:103B9000002329F089818F710E94E0213BCE0E9491
:103BA000DB2138CE81E00E949324123008F432CE1B
:103BB00082E00E9493242ECE112361F01D811933DF
:103BC00009F0EFCE2FEF37EE83E0215030408040F8
:103BD000E1F7E5CE89818F71A2CF0F900F900F9002
:103BE0000F900F90DF91CF911F910F91FF90EF9069
:103BF000DF90CF90BF9008950F931F93CF93DF93E3
:103C0000EC01688179818A810E94B8238C010E942D
:103C100014230E945021B801CE01DF91CF911F9152
:103C20000F910C94C41BCF93DF93EC018B819C818B
:103C3000892B29F08981988189238F3F59F4DF915D
:103C4000CF910895CE010E94FC1DCE01DF91CF914E
:103C50000C94EE08CE010E94720A8111F3CF0E94EB
:103C60000024882361F38A81882349F382E0DF916D
:103C7000CF910C9493240E9429240E942C240C940C
:103C800048240E94F0230C943B1E0E9418240C949C
:103C9000411E282F892F82958F70903C80F48A30A6
:103CA000B0F4843020F4823090F480E008958630BF
:103CB000E1F781E0283E88F0213FB9F70EC08C3053
:103CC00011F08F3091F793FB882780F9089581E0F8
:103CD000203F39F018F4283E40F70895243F29F793
:103CE000FCCF08950E94AC230C94491ECF93DF9320
:103CF00000D000D00F92CDB7DEB70F900F900F908D
:103D00000F900F90DF91CF910895CF93DF9300D064
:103D100000D000D0CDB7DEB726960FB6F894DEBF40
:103D20000FBECDBFDF91CF9108951F93CF93DF9347
:103D3000E091B80116E08091B9018E1304C0DF91C3
:103D4000CF911F910895CE2FD0E01E9FF001112436
:103D5000E654FE4F40815181628173818481958157
:103D60000E94851EFE013196E770E5CF4091EA0181
:103D70005091EB016091EC017091ED018091EE01A9
:103D80009091EF010C94851E1F93CF93DF93809148
:103D9000EF01807FA9F48091EC01882389F0809164
:103DA000B801C091B9017091EA016091EB01A09155
:103DB000ED01B091EE01D62FD72316E0C81304C051
:103DC000DF91CF911F91089590E0109711F0DF3FA0
:103DD00019F401968770F2CF189F9001199F300D4A
:103DE0001124F901E654FE4F41816413F2CF408162
:103DF0004713EFCF42814111ECCF438154814A1BDD
:103E00005B0B483C510528F78091EF018F70806172
:103E10008093EF01F901E154FE4F80818F70806142
:103E200080838AEE91E00E94131EDF91CF911F9153
:103E30000C94951EAF92BF92CF92DF92EF92FF92B9
:103E40000F931F93CF93DF93CDB7DEB72B970FB6AA
:103E5000F894DEBF0FBECDBF8C0185E0F801DE0116
:103E6000179601900D928A95E1F7F80140815181F2
:103E7000E2808AEEA82E81E0B82E6091ED0170916B
:103E8000EE016115710549F09091EA012091EB0175
:103E9000892F82238F3F09F045C1EE2009F453C1D9
:103EA0004F8358878F8198850E94721EF82E882331
:103EB00009F449C186E0F801AAEEB1E001900D9243
:103EC0008A95E1F78AEE91E00E94DF1A0E94C41EF3
:103ED00026C18091EF01382F307F683C710508F0D2
:103EE0007CC03111B5C0FE2C251324C0941322C010
:103EF000E11020C08F7080618093EF010E94B61E98
:103F00008AEE91E00E94131E8091EF01F8018583F3
:103F10008F2D2B960FB6F894DEBF0FBECDBFDF916D
:103F2000CF911F910F91FF90EF90DF90CF90BF90B6
:103F3000AF900895CD2829F0842F85238F3F09F075
:103F400084C080E0F82FF170DF2EE091B80120915D
:103F5000B90136E080FD1CC0EE20D1F28091EF0166
:103F600081608093EF01F12CD3CF8E2F90E03E9FA4
:103F7000F0011124E654FE4F6181651306C0608193
:103F8000641303C062816E11E7CFFC013196E770C4
:103F9000E213EBCF4F8358878F8198850E94AC2323
:103FA000292F22952F70903260F0225F2F702230DF
:103FB00078F49F7051F0F8019581907F31F4D12C05
:103FC0000AC09F7011F08823D1F3805E8830B8F367
:103FD000C8010E94131EFD2C9BCF31116EC06E2DA7
:103FE0007A858B850E94761E8AEE91E00E94131ED0
:103FF00086E0F50111928A95E9F70E94B61EB3CFCB
:1040000086E0F801AAEEB1E001900D928A95E1F701
:104010007FCF4F8358878F8198850E94721E8111B0
:104020003DC08091EF0181608093EF01C8010E9443
:10403000131E6ECF6E2D7A858B850E94761E86E0CC
:10404000F50111928A95E9F76AC081E08E257ACF51
:10405000251306C0941304C0F801EE2009F453C0E0
:104060004F8358878F8198850E94721E882309F498
:104070006AC0EE2009F467C08091EF01803270F0D1
:104080002091EA013091EB013A8329831B82DD8282
:10409000CC828E83CE0101960E94131E86E0F80129
:1040A000AAEEB1E001900D928A95E1F70E94C41E3C
:1040B0000E94B61EFF24F3942BCF2513D1CF941367
:1040C000CFCFE110CDCFF8018583C8010E94131E28
:1040D00086E0F50111928A95E9F71ACF251399CF59
:1040E000941397CF8091EF0180FD8ACF982F907F16
:1040F00009F486CFF8018583903F31F0982F907FA7
:10410000905F8F70892B8583C8010E94131E86E003
:10411000F801AAEEB1E001900D928A95E1F70E94B4
:10412000B61EF6CEC380D480F090EC01F601E61BFB
:10413000F70BBF01F110CDCE683C710508F07ACFC6
:10414000FE2CE110CBCFC8010E94131EB3CF1F93EA
:10415000CF93DF93CDB7DEB72C970FB6F894DEBFC1
:104160000FBECDBF4F83588769877A878B879C871F
:10417000CE0107960E941A1F882369F08A859B85C5
:10418000892B39F058854F81852F84238F3F09F083
:1041900071C016E05FC086E0FE013796DE01119621
:1041A00001900D928A95E1F78A859B85892B89F389
:1041B0008F81988589238F3F61F32091B90130E089
:1041C000C9010196877099274091B80148171906CF
:1041D00071F40E94451E1092B9011092B80186E058
:1041E000EAEEF1E0DF011D928A95E9F7D2CF96E081
:1041F000929FD001939FB00D1124A654BE4FFE0193
:10420000319601900D929A95E1F78093B9010E9441
:10421000951EBFCF819FC001112486549E4F0E94DE
:104220001A1F8823E9F0E091B8011E9FF0011124C4
:10423000E654FE4F40815181628173818481958172
:104240000E94851E8091B80190E0019687709927A1
:104250008093B8018091B8019091B9018913DACFA8
:104260002C960FB6F894DEBF0FBECDBFDF91CF9175
:104270001F91089569857A858B859C850E94851E8E
:1042800088CF08950C9441210E944221609303023B
:104290007093040280930502909306020C943B1ED7
:1042A00008950C944421CF93DF9300D000D0CDB774
:1042B000DEB769837A838B839C838091030290911C
:1042C0000402A0910502B091060229813A814B8136
:1042D0005C81282B392B4A2B5B2B29833A834B8318
:1042E0005C83CA01B9010F900F900F900F90DF917E
:1042F000CF910C944421CF93DF9300D000D0CDB761
:10430000DEB769837A838B839C83809103029091CB
:104310000402A0910502B091060229813A814B81E5
:104320005C81282339234A235B2329833A834B83E7
:104330005C83CA01B9010F900F900F900F90DF912D
:10434000CF910C944421CF93DF9300D000D0CDB710
:10435000DEB769837A838B839C838091030290917B
:104360000402A0910502B091060229813A814B8195
:104370005C81282739274A275B2729833A834B8387
:104380005C83CA01B9010F900F900F900F90DF91DD
:10439000CF910C9444210C9441210C94CB210E9488
:1043A000CD216093FF0170930002809301029093EE
:1043B00002020C943B1E60E070E0CB010C94CF2114
:1043C0000F931F93CF93DF9300D000D0CDB7DEB70C
:1043D00041E050E060E070E08A019B0104C0000F02
:1043E000111F221F331F8A95D2F709831A832B834B
:1043F0003C83C901B8010F900F900F900F90DF918F
:10440000CF911F910F910C94CF210F931F93CF93B6
:10441000DF9300D000D0CDB7DEB741E050E060E0E0
:1044200070E004C0440F551F661F771F8A95D2F7AE
:104430008091FF0190910002A0910102B0910202CF
:104440008A019B01082B192B2A2B3B2B09831A83EA
:104450002B833C83C901B8010F900F900F900F90F0
:10446000DF91CF911F910F910C94CF210F931F9348
:10447000CF93DF9300D000D0CDB7DEB741E050E05E
:1044800060E070E004C0440F551F661F771F8A95D7
:10449000D2F740955095609570958091FF0190916D
:1044A0000002A0910102B09102028A019B0108233F
:1044B00019232A233B2309831A832B833C83C901B5
:1044C000B8010F900F900F900F90DF91CF911F9137
:1044D0000F910C94CF210F931F93CF93DF9300D0B4
:1044E00000D0CDB7DEB741E050E060E070E004C03E
:1044F000440F551F661F771F8A95D2F78091FF01E1
:1045000090910002A0910102B09102028A019B01E8
:10451000082719272A273B2709831A832B833C83E3
:10452000C901B8010F900F900F900F90DF91CF91BC
:104530001F910F910C94CF21CF93DF9300D000D027
:10454000CDB7DEB769837A838B839C838091FF012B
:1045500090910002A0910102B091020229813A815A
:104560004B815C81282B392B4A2B5B2B29833A8387
:104570004B835C83CA01B9010F900F900F900F908D
:10458000DF91CF910C94CF21CF93DF9300D000D057
:10459000CDB7DEB769837A838B839C838091FF01DB
:1045A00090910002A0910102B091020229813A810A
:1045B0004B815C81282339234A235B2329833A8357
:1045C0004B835C83CA01B9010F900F900F900F903D
:1045D000DF91CF910C94CF21CF93DF9300D000D007
:1045E000CDB7DEB769837A838B839C838091FF018B
:1045F00090910002A0910102B091020229813A81BA
:104600004B815C81282739274A275B2729833A83F6
:104610004B835C83CA01B9010F900F900F900F90EC
:10462000DF91CF910C94CF210895E92FEE0FEE0F7B
:10463000E80F8E2F877041E001C0440F8A95EAF79A
:10464000E695E695E69585E0E89FF0011124E051B6
:10465000FE4F30E020E070E05191DF011197CB0177
:10466000022E02C0969587950A94E2F78170819593
:104670008527842385278C932F5F3F4F2530310575
:1046800059F70895E92FEE0FEE0FE80F9E2F977060
:10469000E695E695E69585E0E89FF0011124E05166
:1046A000FE4F50E040E080E0219130E0092E02C052
:1046B000369527950A94E2F721703327042E01C01E
:1046C000220F0A94EAF7822B4F5F5F4F4530510566
:1046D00059F70895BF92CF92DF92EF92FF920F9316
:1046E0001F93CF93DF938C01C090FF01D090000205
:1046F000E0900102F0900202809103029091040286
:10470000A0910502B0910602C82AD92AEA2AFB2AFA
:10471000CFE1D0E0BC2ED701C6010C2E04C0B69567
:10472000A795979587950A94D2F780FD0EC021979B
:1047300088F7B12C8B2DDF91CF911F910F91FF90B6
:10474000EF90DF90CF90BF900895B8018C2F0E941A
:10475000D00A019761F3EECFCF93DF93D82FC92F03
:104760000E946A236D2F7C2FDF91CF910C94D00A89
:104770001F93CF93DF93162FD72F9091B7019923D3
:1047800039F0862F972FDF91CF911F910C94AC2396
:10479000882391F0862F972F0E946A23C82F682FB5
:1047A000812F9D2F0E941523612F7D2F8C2FDF914C
:1047B000CF911F910C94D00A862F972F0E944223ED
:1047C000C82FF2CF682F80910701909108010C94B7
:1047D0000226682F80910701909108010C9404260D
:1047E00080910701909108010C94062680910702A0
:1047F0008595859585950895809107028770089520
:1048000090910702977081E009F480E0089580910B
:104810001302089590911302982B90931302089518
:10482000982F909580911302892380931302089505
:1048300010921302089590911202982B90931202F5
:104840000895982F909580911202892380931202E7
:104850000895109212020895109211020895809105
:104860000802089508950C94322490910802981734
:1048700021F0809308020C9433240895809108025B
:10488000882329F01092080280E00C9433240895C4
:10489000E0910701F0910801809113028083E0917B
:1048A0000701F0910801808190911202892B808389
:1048B000E0910701F0910801808190911102892B0C
:1048C000808390910802992381F0E0910701F09193
:1048D00008018081892B80838091070190910801D4
:1048E0000E94B62581110E943E248091070190917B
:1048F00008010C94631908950C947B2498E0899F17
:1049000090011124622B609307020E94052280917E
:1049100007028595859585950C947C241092070255
:1049200080E00C947C2490910702809589238093E9
:104930000702282F277071F4282F082E000C330B44
:104940009217130639F08595859585950E94362234
:104950000C948E24089590934B0180934A010895FE
:104960000F931F93462F572FBC01CB01AA27BB27BC
:104970000097A105B105E9F1AC01BD0180E1052F6A
:10498000162F272F3327011511052105310519F0A1
:10499000885FB901A8018A019B01F4E0369527954B
:1049A00017950795FA95D1F70115110521053105E0
:1049B00019F08C5FB901A8018A019B01E2E03695EC
:1049C000279517950795EA95D1F70115110521054A
:1049D000310519F08E5FB901A80176956795579555
:1049E0004795452B462B472B09F08F5F1F910F9161
:1049F000089580E0C4CF829594E0899F90011124AE
:104A00002C7C869586958373282B30E0C901880F0E
:104A1000991F8A7A359527952575822B08956FEF12
:104A20007FEF90E080E00C94F13290E080E00E9413
:104A3000CD329C0181E02C3E3E4F09F080E008958C
:104A400082E090E00C94BF3283E090E00C94BF329F
:104A5000CF9384E090E00E94BF32C82F81E290E0C3
:104A60000E94BF32982F8C2FCF910895CF93682F3B
:104A7000C92F84E090E00E94D3326C2F81E290E055
:104A8000CF910C94D3328FE090E00C94C732AB01FD
:104A9000BC018FE090E00C94E532AB01BC0183E1F6
:104AA00090E00C94E53260E070E0CB010C944D2571
:104AB0006CEE7EEF90E080E00E94F13260E082E0F8
:104AC00090E00E94D33260E083E090E00E94D33215
:104AD0001092030210920402109205021092060234
:104AE00060E084E090E00E94D33260E081E290E0F8
:104AF0000E94D33260E085E090E00E94D33260E013
:104B000086E090E00E94D3326FEF87E090E00E9451
:104B1000D33240E050E0BA0188E090E00E94E532F4
:104B200060E08DE090E00E94D33240E050E0BA01B6
:104B300088E190E00E94E53260E087E190E00E9429
:104B4000D33240E050E0BA018CE190E00E94E532BF
:104B500060E080E290E00E94D3320C945E070C94F7
:104B60005825682F8EE090E00C94D332AC019C0164
:104B70002E5F3F4F485F5F4F80E02417350709F4F1
:104B80000895F90191919F019923B9F38F5FF5CFB2
:104B90009C01662351F0FC013296285F3F4F8191C2
:104BA000861729F0E217F307D1F780E0089581E036
:104BB00008959C01FC0132968FEF90E041914617D9
:104BC00051F08F3F19F4411101C0892F9F5F96303A
:104BD000A9F78F3F09F40895280F311D87FD3A95F5
:104BE000F901628308959C01FC013296285F3F4FD2
:104BF0008191861303C0DF0111971C92E217F3071E
:104C0000B9F708950C94D9250C94F325FC0132963C
:104C100086E0DF011D928A95E9F7089508950895C9
:104C20000C940F260E94102680912F02843009F4E4
:104C300039C01092150288E190E020E40FB6F89494
:104C4000A895809360000FBE2093600080E00E94D2
:104C50005A0A0E9450118091160281110AC081E007
:104C60008093160280919E018170809317020E94AA
:104C7000E9120E94102683B7817F846083BF83B7C7
:104C8000816083BF7894889583B78E7F83BF0FB68A
:104C9000F894A895809160008861809360001092DC
:104CA00060000FBE08950895CF930E940E260E94C3
:104CB000EA0C0E945326C0E08C2F0E94890C8111BF
:104CC00005C0CF5FC630C1F7CF91089581E0FCCF1A
:104CD00008950C9468260E94451E0E9457190E9450
:104CE0005A0A109216028091170281110E947212C4
:104CF0000E942E110C9469261F921FB61F92112438
:104D00008F939F93AF93BF9380911502811113C02E
:104D10008091180290911902A0911A02B0911B0281
:104D20004196A11DB11D8093180290931902A09382
:104D30001A02B0931B02BF91AF919F918F911F9068
:104D40001FBE1F90189582E084BD93E095BD9AEF39
:104D500097BD80936E0008952FB7F8948091180244
:104D600090911902A0911A02B0911B022FBF0895D1
:104D7000CF93DF9300D000D0CDB7DEB78FB7F894D4
:104D8000209118023091190240911A0250911B0291
:104D900029833A834B835C838FBF69817A818B81BE
:104DA0009C810F900F900F900F90DF91CF910895FD
:104DB0009C014FB7F8948091180290911902A0912C
:104DC0001A02B0911B024FBF821B930B0895789477
:104DD0001F921FB61F9211248F939F93AF93BF937F
:104DE0008091180290911902A0911A02B0911B02B1
:104DF0000196A11DB11D8093180290931902A093F2
:104E00001A02B0931B02BF91AF919F918F911F9097
:104E10001FBE1F90189587E797E79093010880932E
:104E2000000888E19AE00FB6F894A8958093600096
:104E30000FBE90936000FFCF0C948D140E94EA0C7B
:104E40008FE39CE90197F1F700C000000E94EA0C93
:104E500085E00E94890C80FF04C00E941C270C94EE
:104E60000B270895CF93DF9300D000D0CDB7DEB7E6
:104E70000E941525811102C00E94AF250E942025A5
:104E8000809314020E94282590931D0280931C0297
:104E90000E942425282F30E050E040E029833A8307
:104EA0004B835C83CA01B9010F900F900F900F9054
:104EB000DF91CF910C94512180912902089508959A
:104EC0000895CF93DF93D82FC92F0E94362A8230BE
:104ED00011F0843049F581E08093E9008FEF9091E3
:104EE000E800815095FD06C095ED9A95F1F7000018
:104EF0008111F5CF8091E80085FF16C050E040E0B9
:104F000068E070E08D2F9C2F0E94532A8091E8006A
:104F10008E778093E80088E0ED2FFC2FA1E2B2E0CD
:104F200001900D928A95E1F7DF91CF9108959FB797
:104F3000F894109220029FBF90912F02943009F0B4
:104F400048C02091E9002F703091EC00932F9170B0
:104F500030FD90E8922B24E02093E9002091EB00B3
:104F600020FF34C02091EE0027FF30C020911E02A8
:104F7000222321F02091E80025FF28C010921E0274
:104F800026E03091E80035FF14C08093F100809155
:104F9000E80085FD27C08091E80080FFFCCF80916C
:104FA000E8008E778093E8009F709093E90080E09E
:104FB000089530912F02343049F43091EB0035FDE3
:104FC00005C0215041F481E080931E029F709093B0
:104FD000E9008FEF0895EFE9FFE03197F1F700C0A6
:104FE0000000CFCF8FB7F89421E0209320028FBF2D
:104FF000DBCF0895CF93603219F520912F02243032
:10500000F9F4C091E900CF703091EC00232F2170AA
:1050100030FD20E8C22B22E02093E9002091E80037
:1050200020FF0BC050E040E060E270E00E94532A95
:105030008091E8008E778093E800CF70C093E900FC
:10504000CF91089589EE96E00E9465048091380220
:10505000811109C00E942A2C0E94872C8091E200B5
:1050600084608093E200089585EE96E00E946504D6
:1050700010923802089581EE96E00C9465048DED4F
:1050800096E00C94650489ED96E00E9465040C940A
:105090006B2620911F022F5F822F62E30E947132E4
:1050A000992319F020931F02089510921F028091F6
:1050B00020028823F1F080912F028430C1F4909176
:1050C000E9009F702091EC00822F817020FD80E824
:1050D000892B94E09093E9009091EB0090FF04C03D
:1050E0009091EE0097FD08C08F708093E9001092B8
:1050F000200208951092F1009091E80095FDFACFFA
:105100009091E80090FFF0CF9091E8009E77909307
:10511000E800EACF42E061EC81E00E94A62B42E287
:1051200061EC82E00E94A62B42E260EC83E00E94E8
:10513000A62B42E261EC84E00C94A62B8091310214
:10514000893089F148F4823009F49DC0833009F434
:1051500058C0813041F008958A3009F484C08B3002
:1051600009F46AC0089580913002813A09F048C07C
:105170008091E800877F8093E800809134029091CD
:105180003502892B61F468E081E292E070E00E94D0
:10519000F12A8091E8008B778093E800089560E021
:1051A00090E080E0F3CF80913002813249F5809128
:1051B000340290913502892B19F58091E800877FA0
:1051C0008093E8008091E80082FF16C09091F30080
:1051D0008091F200029729F48091F1008B7F813059
:1051E00021F48091F100809329028091E8008B776F
:1051F0008093E8000C94DA2B80912F028111E2CF8A
:10520000089580913002813AD9F7809134029091CB
:105210003502892BA9F78091E800877F8093E80009
:105220008091E80080FFFCCF809113018093F10012
:105230008091E8008E77DCCF80913002813201F7D7
:105240008091340290913502892BD1F68091E8004B
:10525000877F8093E8000E94DA2B8091320280934E
:1052600013010C94451E80913002813249F68091E1
:10527000E800877F8093E8000E94DA2B8091330258
:1052800080932A02089580913002813A09F0B8CFC4
:105290008091E800877F8093E8008091E80080FF9C
:1052A000FCCF80912A02C2CFCDB7DEB7A0970FB650
:1052B000F894DEBF0FBECDBF84B7877F84BF0FB623
:1052C000F894A895809160008861809360001092A6
:1052D00060000FBE80E890E00FB6F8948093610004
:1052E000909361000FBE0E94E1190E942A2C0E9437
:1052F000872C8091E20084608093E20087E997E246
:105300000E94AB2478940E940D2F0E94EB1989E033
:1053100091E00E94521988EC96E00E94650413E027
:1053200080912F02853039F10E94211A80912F023D
:105330008430B1F71093E9008091E80082FFF0CF4C
:105340008091E80090E085FF09C050E040E060E215
:1053500070E0CE0101960E94A22A91E08091E800BF
:105360008B778093E8009923D9F260E2CE01019611
:105370000E94F814D5CF84EC96E00E9465040E9448
:10538000122680912C02882359F20E9454268823E9
:1053900039F20E943D2AC4CF0C94CE29FC01CB01E6
:1053A000DA012F2F332723303105D1F070F421306B
:1053B000310509F44EC02230310569F482E690E0EF
:1053C00027E237E02D933C9308952132310521F1F6
:1053D0002232310571F190E080E030E020E0F2CF40
:1053E000CF019927E230A9F08330910550F400975E
:1053F00069F0E3E0F7E0019771F7849190E09F0195
:10540000E1CFEDEEF6E00397C1F3E5CFE3E2F7E09D
:10541000F4CFE3EFF6E0F1CF63307105E0F6880FEB
:10542000991FFC01EC5BFE4F2081318189E090E007
:10543000C9CF6330710578F6FB01EE0FFF1FE25C08
:10544000FE4F20813181855C9E4FFC01808190E080
:10545000B9CF82E190E029E837E0B4CF80912F0204
:10546000843011F482E0089581E0089580912B0248
:10547000811102C00C942E2A089580E189BD82E139
:1054800089BD09B400FEFDCF8091D8008F7D809347
:10549000D8008091E00082608093E0008091E0007D
:1054A00081FDFCCF0895AF92BF92CF92DF92FF9221
:1054B0000F931F93CF93DF936C01EB018A010E943E
:1054C000F92BF82E811123C00115110539F0F801CF
:1054D00080819181C81BD90BC80ED91EB12CA12C7B
:1054E0002097A9F08091E80085FD22C08091E80016
:1054F0008E778093E80001151105A1F0F8018081F5
:105500009181A80EB91EB182A08285E0F82E8F2D60
:10551000DF91CF911F910F91FF90DF90CF90BF90BF
:10552000AF9008950E94F92B8823D1F2F82EEFCF87
:10553000F60181916F018093F1002197FFEFAF1A7F
:10554000BF0ACECFAF92BF92CF92DF92FF920F935E
:105550001F93CF93DF936C01EB018A010E94F92B1B
:10556000F82E811123C00115110539F0F801808151
:105570009181C81BD90BC80ED91EB12CA12C209724
:10558000A9F08091E80085FD22C08091E8008B772A
:105590008093E80001151105A1F0F8018081918147
:1055A000A80EB91EB182A08285E0F82E8F2DDF9162
:1055B000CF911F910F91FF90DF90CF90BF90AF9050
:1055C00008950E94F92B8823D1F2F82EEFCF809115
:1055D000F100F60181936F012197FFEFAF1ABF0A27
:1055E000CECFFC01CB012091360230913702261735
:1055F000370790F0009729F42091E8002E77209348
:10560000E80040E0009751F4411108C08091E800A3
:1056100082FF31C080E00895C901F3CF20912F02AD
:105620002223A9F12530A9F12091E80023FD2DC006
:105630002091E80022FDEACF2091E80020FFE2CF90
:105640003091F3002091F200009719F028303105D5
:1056500058F041E02830310509F040E02091E800A1
:105660002E772093E800CECF41914093F10001972F
:105670002F5F3F4FE9CF80912F02882341F0853083
:1056800041F08091E80083FFC1CF81E0089582E07E
:10569000089583E00895FC01CB01209136023091FA
:1056A00037022617370790F0009729F42091E80079
:1056B0002E772093E80040E0009751F4411108C094
:1056C0008091E80082FF32C080E00895C901F3CFE5
:1056D00020912F022223B1F12530B1F12091E80071
:1056E00023FD2EC02091E80022FDEACF2091E800A2
:1056F00020FFE2CF3091F3002091F200009719F0E3
:105700002830310558F041E02830310509F040E0FB
:105710002091E8002E772093E800CECF449140936B
:10572000F100319601972F5F3F4FE8CF80912F0214
:10573000882341F0853041F08091E80083FFC0CF9D
:1057400081E0089582E0089583E00895982F9730CE
:1057500028F08F708093E90081E008959093E9002C
:10576000242F762F50E0981731F07091EC002091A3
:10577000ED005091F00021FD02C09F5FE8CF309115
:10578000EB003E7F3093EB003091ED003D7F309396
:10579000ED003091EB0031603093EB007093EC0042
:1057A0002093ED005093F0002091EE0027FDE5CF0F
:1057B00080E008958091300287FF13C08091E80057
:1057C00082FF06C08091E8008B778093E80004C0D8
:1057D00080912F028111F2CF089580912F028823AA
:1057E000D9F38091E80080FFF8CF8091E8008E77B0
:1057F000ECCF2091E4003091E50095E6A9012091DD
:10580000EC00822F817020FF06C08091E80080FFAD
:1058100006C080E008952091E80022FD1AC0809122
:105820002F02882389F0853089F08091EB0085FD77
:105830000FC02091E4003091E50042175307F9F2C0
:105840009150E1F684E0089582E0089583E00895A0
:1058500081E008950E94982C0E94A02CE0EEF0E0D8
:10586000808181608083E8EDF0E080818F778083A4
:1058700019BCA7EDB0E08C918E7F8C9380818F7ED8
:1058800080831092380208950F931F93CF93DF9374
:105890000E94982C0E94A02CC8EDD0E088818F77C0
:1058A000888388818068888388818F7D888319BCFC
:1058B00010922F0210922E0210922C0210922D02A2
:1058C00000EE10E0F80180818B7F80838881816009
:1058D000888342E060E080E00E94A62BE1EEF0E0E9
:1058E00080818E7F8083E2EEF0E080818160808322
:1058F000808188608083F80180818E7F80838881A9
:1059000080618883DF91CF911F910F910895E8ED19
:10591000F0E080818F7E8083E7EDF0E08081816020
:10592000808384E082BF81E0809338020C94442C11
:10593000E8EDF0E080818E7F80831092E200089590
:105940001092DA001092E10008951F920F920FB6A4
:105950000F9211242F933F934F935F936F937F93F5
:105960008F939F93AF93BF93EF93FF938091E10049
:1059700082FF0BC08091E20082FF07C08091E100AE
:105980008B7F8093E1000E9449288091DA0080FF9C
:1059900019C08091D80080FF15C08091DA008E7FF9
:1059A0008093DA008091D90080FF94C080E189BDA6
:1059B00082E189BD09B400FEFDCF81E080932F0212
:1059C0000E9422288091E10080FF19C08091E200AE
:1059D00080FF15C08091E2008E7F8093E20080916D
:1059E000E20080618093E2008091D8008062809321
:1059F000D80019BC85E080932F020E943F28809137
:105A0000E10084FF29C08091E20084FF25C080E18D
:105A100089BD82E189BD09B400FEFDCF8091D80027
:105A20008F7D8093D8008091E1008F7E8093E1008C
:105A30008091E2008F7E8093E2008091E20081609D
:105A40008093E20080912E02882309F449C084E00B
:105A500080932F020E9443288091E10083FF29C098
:105A60008091E20083FF25C08091E100877F8093D1
:105A7000E10082E080932F0210922E028091E100DB
:105A80008E7F8093E1008091E2008E7F8093E20020
:105A90008091E20080618093E20042E060E080E07B
:105AA0000E94A62B8091F00088608093F0000E94F5
:105AB0003B28FF91EF91BF91AF919F918F917F9183
:105AC0006F915F914F913F912F910F900FBE0F906B
:105AD0001F90189519BC10922F020E94342872CF83
