:100000000C9441020C9488020C9488020C9488028F
:100010000C9488020C9488020C9488020C94880238
:100020000C9488020C9488020C94D82A0C94AB2B64
:100030000C945B220C9488020C9488020C94880225
:100040000C9488020C9488020C9488020C94880208
:100050000C9488020C94C6220C9488020C9488029A
:100060000C9488020C9488020C9488020C948802E8
:100070000C9488020C9488020C9488020C948802D8
:100080000C9488020C9488020C9488020C948802C8
:100090000C9488020C9488020C9488020C948802B8
:1000A0000C9488020C9488020C94880207634236F0
:1000B000B79BD8A71A39685618AEBAAB558C1D3CF9
:1000C000B7CC5763BD6DEDFD753EF6177231BF00BD
:1000D0000000803F05A84CCDB2D44EB93836A902F5
:1000E0000C50B9918688083CA6AAAA2ABE00000036
:1000F000803F1150380025022A00240025002600E8
:100100002D002100220023002E021E001F002000CF
:1001100028002700270037002800A800AA00A9000F
:10012000000010505400550056005F006000610050
:1001300057005C005D005E00570059005A005B00EC
:1001400058006200620063005800AE00AC00AB00D3
:10015000000000000000000000002A2B2800000022
:100160000000000000000000000000000029000066
:1001700000002C1E3420212224342627252E362D43
:100180003738271E1F202122232425263333362EDD
:1001900037381F0405060708090A0B0C0D0E0F104F
:1001A0001112131415161718191A1B1C1D2F313094
:1001B000232D350405060708090A0B0C0D0E0F1038
:1001C0001112131415161718191A1B1C1D2F313074
:1001D000354C00000000000000000000000000009E
:1001E0000000000000007E0F00D4FFFFFFC70000EA
:1001F000007800041E140A0500010101010101013B
:1002000001010202020202020202020303030303CB
:10021000030303040404040404040505050505069A
:100220000606060607070707070808080809090958
:10023000090A0A0A0B0B0B0C0C0C0D0D0D0E0E0E01
:100240000F0F0F1010111111121213131414151592
:1002500016161717181819191A1A1B1B1C1D1D1E04
:100260001E1F202021222223242425262627282958
:10027000292A2B2C2D2D2E2F303132323334353686
:100280003738393A3B3C3D3E3F4041424344454686
:100290004748494A4C4D4E4F505153545556585962
:1002A0005A5B5D5E5F616264656668696B6C6D6F09
:1002B0007072737577787A7B7D7E8082838587887C
:1002C0008A8C8E8F91939596989A9C9EA0A2A3A5B6
:1002D000A7A9ABADAFB1B3B5B7BABCBEC0C2C4C6B7
:1002E000C9CBCDCFD1D4D6D8DBDDDFE2E4E7E9EB73
:1002F000EEF0F3F5F8FAFDFF0403300000000E0302
:10030000450043004D0058003200300000001E033D
:10031000730065006B00690067006F006E002D00C0
:1003200067006F006E006E006F0063000000040342
:10033000090409025B00030100A0FA09040000019E
:10034000030101000921110100012240000705817C
:100350000308000A0904010002030000000921113A
:100360000100012222000705820320000107050386
:10037000032000010904020001030000000921110B
:100380000100012281000705840320000A120110E8
:100390000100000008EDFE20EC010001020301064F
:1003A00060FF0961A1010962150026FF0095207513
:1003B0000881020963150026FF0095207508910247
:1003C000C005010902A10185020901A10005091961
:1003D0000129051500250195057501810295017515
:1003E0000381010501093009311581257F950275C9
:1003F00008810609381581257F9501750881060554
:100400000C0A38021581257F950175088106C0C048
:1004100005010980A101850319012AB700150126EC
:10042000B700950175108100C0050C0901A1018577
:100430000419012AA002150126A002950175108158
:1004400000C005010906A101050719E029E715000B
:10045000250195087501810295017508810105073F
:10046000190029FF150026FF009506750881000573
:1004700008190129059505750191029501750391EA
:1004800001C011241FBECFEFDAE0DEBFCDBF04B63E
:1004900003FE27C08091760290917702A0917802A6
:1004A000B09179028730904BA740B04BD1F41092B5
:1004B000760210927702109278021092790214BE9E
:1004C00084B7877F84BF0FB6F894A89580916000A9
:1004D000886180936000109260000FBEE0E0F8E356
:1004E000099511E0A0E0B1E0E4E1F3E602C0059077
:1004F0000D92AE3AB107D9F722E0AEEAB1E001C001
:100500001D92A637B207E1F70E9493270C942F3172
:100510000C940000807C809300010895803F09F1D5
:1005200088F4843901F140F48533F9F08633F9F029
:10053000843339F583E208958639D9F0873909F58E
:1005400082E20895853FB9F030F4813FB1F0843FF5
:10055000C1F484E00895863F91F0873F91F487E0ED
:10056000089580E0089580E2089584E2089585E288
:10057000089581E2089585E0089581E0089586E078
:1005800008958FE1089596E890937A00982F9072DD
:10059000906890937B008F7190910001892B8093DC
:1005A0007C0080917A00806480937A0080917A0048
:1005B00086FDFCCF809178009091790008950E948B
:1005C0008E020C94C3020F931F93CF93DF93FC0111
:1005D00080819181A281B3818093AE019093AF011C
:1005E000A093B001B093B1012998219A80EC0E94A8
:1005F0008A02C7E2D1E02CE231E041E050E089918B
:10060000E82FE295EF70A1E2AE0FB0E06C918F7031
:100610008A0102C0000F111F8A95E2F7C801962FC8
:10062000982B9C93EE5DF0E09081809589238083E8
:100630002C173D0721F7A0E2B1E023E231E061E0B1
:1006400070E08D91E82FE295EF70EF5DF0E0908122
:100650008F70AB0101C0440F8A95EAF7892F842B74
:1006600080832A173B0769F72198299890E080E05A
:10067000DF91CF911F910F9108954091AE0150915C
:10068000AF016091B0017091B101FC0140835183D1
:10069000628373830895BF92CF92DF92EF92FF92AD
:1006A0000F931F93CF93DF937C01D0E0C0E010E065
:1006B00000E0B12CCC24C394D12C0530110581F479
:1006C0002196C430D10509F086C08B2DDF91CF91E2
:1006D0001F910F91FF90EF90DF90CF90BF90089502
:1006E000219AFE01ED5DFE4F808180FF5DC0599A29
:1006F00081FF5CC0589A82FF5BC05C9AA7E2B1E0C0
:100700009D91E92FE295EF70EE5DF0E020819F7002
:10071000A60102C0440F551F9A95E2F7CA018095C1
:100720008223808351E0AC32B50751F7F8942198C9
:100730002998F801E95DFE4F8081E82FE295EF707E
:10074000EE5DF0E090818F70960101C0220F8A95D6
:10075000EAF7892F822B808386EF0E94DF02AC01AB
:100760007894F701E00FF11F8081282F30E00C2EE4
:1007700002C0359527950A94E2F720FF1BC020910F
:10078000AE013091AF014217530718F596010C2EB8
:1007900001C0220F0A94EAF720958223808381E02A
:1007A000B82A0F5F1F4F89CF5998A2CF5898A3CF6F
:1007B0005C98A4CF2091B0013091B1012417350786
:1007C00040F496010C2E01C0220F0A94EAF7822B06
:1007D000E5CF80E0E5CF10E000E06FCF0895CF9344
:1007E000DF9300D000D0CDB7DEB782E290E00E9468
:1007F000F5309A83898384E290E00E94F5309C83EF
:100800008B83CE0101960E94E30226982E9A0F90C8
:100810000F900F900F90DF91CF9108951F93CF937A
:10082000DF93EC010E944B03182F9D811E9917C086
:1008300090FD03C091609D8311E08091B201909181
:10084000B3019C012F5F3F4F4E9769F03093B30186
:100850002093B201812FDF91CF911F91089590FFD6
:10086000ECCF9E7FE8CF1092B3011092B2010E94AC
:10087000EE03F0CF809146028160809346020C9493
:10088000AB15CF93DF9300D000D0CDB7DEB7879AFA
:100890008F9A0E94222169837A838B839C836032A2
:1008A0007C4E8D4E9E4F51F00E948E210F900F90E6
:1008B0000F900F90DF91CF910C94C0100F900F907C
:1008C0000F900F90DF91CF91089560E27CEE8DEE56
:1008D0009EEF0E9426216CE271E082E290E00E948D
:1008E000193164EF71E084E290E00E9419310C94B8
:1008F00032210F931F93CF93DF93CDB7DEB72897A5
:100900000FB6F894DEBF0FBECDBF8C0180913102CF
:1009100090913202A0913302B09134028D839E8374
:10092000AF83B887BC01CD010E94A320D8019C9160
:10093000973009F47FC080F4923071F1933009F45C
:1009400047C028960FB6F894DEBF0FBECDBFDF912B
:10095000CF911F910F910895983009F4C4C0993038
:1009600081F74091D0015091D1016091D2017091F5
:10097000D301F4E08F9FC001112486960E940D31AF
:1009800028960FB6F894DEBF0FBECDBFDF91CF9192
:100990001F910F910C94980BF80181818C3E89F680
:1009A000CE0101960E943D0389819A81982789276B
:1009B0009827D80113969C938E9312978B819C81D4
:1009C00098278927982715969C938E931497B9CFCB
:1009D000F80181818C3E09F0B4CF22813381322726
:1009E0002327322784819581982789279827A90171
:1009F000482359234F3F5F4FD1F48CE291E09A8313
:100A0000898384EF91E09C838B83CE0101960E94C1
:100A1000E3020B811C8169817A8182E290E00E946D
:100A20001931B80184E290E00E9419318ACF3A83EB
:100A30002983E9CF11968C911197823809F445C02A
:100A4000C8F4803809F1813809F07BCF12968C9177
:100A50000E94EB0EF801828181112BC028960FB6FF
:100A6000F894DEBF0FBECDBFDF91CF911F910F91E4
:100A70000C94440E833809F064CF0E94440C482F34
:100A8000F8016381828109C0F80102810E94410C52
:100A9000182F0E943E0C402F612F28960FB6F89415
:100AA000DEBF0FBECDBFDF91CF911F910F910C9490
:100AB000D70D28960FB6F894DEBF0FBECDBFDF91DD
:100AC000CF911F910F910C94210F12968C91289623
:100AD0000FB6F894DEBF0FBECDBFDF91CF911F914F
:100AE0000F910C943B0C11968C918238F1F058F4D4
:100AF0008038B1F0813809F024CF0E94C30BD801AF
:100B000012968C931ECF833809F01BCF0E943E0CA7
:100B1000D80112968C930E94410CF801838311CF67
:100B20000E94440CF80182830CCF0E94110CFACF72
:100B30008F929F92AF92BF92CF92DF92EF92FF92ED
:100B40000F931F93CF93DF93B12CA12C912C812C69
:100B5000D0E0C0E06501F12C18C0F801C230D10529
:100B6000DCF4259134914E2D6F2D8C2F0E9477123D
:100B70000E5F1F4FE39484E0E812EFCF84E0C80ECD
:100B8000D11CF39486E0F81651F08601000F111F76
:100B90000E501F4FE12CE1CFE80DF91DE2CF219659
:100BA00080E3881A910888E1A80EB11CC830D105ED
:100BB00089F6DF91CF911F910F91FF90EF90DF9019
:100BC000CF90BF90AF909F908F900895CF93811159
:100BD0000FC0C2E0611101C0C1E08C2F95E00E94FE
:100BE000621F6C2F75E00E94D412CF910C9479068D
:100BF000CF9108950F931F93CF93DF938B01D82F3D
:100C0000C92F0E94A320883048F424E0829FC001AD
:100C1000112486960E94EF300E94290FB8018D2F73
:100C20009C2FDF91CF911F910F91089581E008953E
:100C3000CF93DF939C01FB019A9581159F4160F54D
:100C4000E901CC27D170D901AA27B270B901662772
:100C50007470A9014427587034FF10C080E1CD2B77
:100C600009F480E0AB2B09F08062672B09F0806407
:100C7000452B09F08068DF91CF91099481E0CD2B5D
:100C800009F480E0AB2B09F08260672B09F08460E7
:100C9000452B89F38860EFCFDF91CF910895CF93F3
:100CA000DF93EC01805E9109089720F06BE17AE117
:100CB000209711F463E877E1CE010E9418068C2F8B
:100CC000DF91CF910C948916CF93DF93EC010E94B2
:100CD0001A17CE01805E9109089720F062E27AE14E
:100CE000209711F46AE877E1CE01DF91CF910C945F
:100CF0001806CF93DF93D82FC92F0E944F068D2F50
:100D00009C2FDF91CF910C94640681E008950C94A0
:100D1000160608950C9489061F93CF93DF9300D095
:100D200000D00F92CDB7DEB749835A836B833091E1
:100D3000E90189819A8131111DC06623B9F022230E
:100D4000A9F00E94621F182F682F89819A810E9442
:100D50000D1F69817A81812F0F900F900F900F9056
:100D60000F90DF91CF911F910C94D4120E943A1FE3
:100D7000182FEFCF0E94621F69817A81EDCFFC01AD
:100D8000262F408151816281738184810C948C066D
:100D9000CF93DF93D82FC92F60E00E94BF066D2F3D
:100DA0007C2FDF91CF910C948A06FF920F931F93B3
:100DB000CF93DF93E82FF0E0EE5AFE4FF490C82F68
:100DC000C695C695C695D0E0FE01EE51FE4F049142
:100DD000877010E0082E02C0159507950A94E2F777
:100DE00001701127CE52DE4FFE01C491D0E002C047
:100DF000D595C7958A95E2F7C170DD2701151105D4
:100E000019F081EE0E948916209719F086EE0E9453
:100E100089168F2D0E947017CD2B19F086EE0E9437
:100E20001A17012B41F081EEDF91CF911F910F91A5
:100E3000FF900C941A17DF91CF911F910F91FF90A3
:100E40000895EF92FF920F931F93CF93DF93EC01DE
:100E5000162F0AE08881882309F456C0813009F0F2
:100E600050C089818130A1F47E0182E0E80EF11C3E
:100E70008A810E947017E7012196812F882351F300
:100E8000EFE9FFE03197F1F700C000008150F6CFA5
:100E9000823041F47E01E2E0EE0EF11C8A810E9474
:100EA0008916E9CF833041F47E01F2E0EF0EF11CA8
:100EB0008A810E941A17DFCF843011F02196DCCF8F
:100EC0002A81229680E090E0AE014F5F5F4F205371
:100ED000330B2A30310550F0009771F2EFE9FFE053
:100EE0003197F1F700C000000197F6CF089FB001DD
:100EF000099F700D1124C901860F971F2981EA01EE
:100F0000E3CF0E94D506B8CFDF91CF911F910F910B
:100F1000FF90EF90089560E00C9421078F929F92CC
:100F2000AF92BF92CF92DF92EF92FF920F931F93F7
:100F3000CF93DF9300D000D0CDB7DEB76B017C013B
:100F400081E090E0A0E0B0E04C015D0104C0880CBD
:100F5000991CAA1CBB1C4A95D2F7B501A4014C01EF
:100F60005D0104C0880C991CAA1CBB1C2A95D2F7F1
:100F7000482959296A297B2904C0880F991FAA1F6B
:100F8000BB1F0A95D2F78A019B010C211D212E213E
:100F90003F210417150726073707F9F49C01AD0117
:100FA0002C293D294E295F2929833A834B835C8371
:100FB00069817A818B819C810F900F900F900F90A7
:100FC000DF91CF911F910F91FF90EF90DF90CF9025
:100FD000BF90AF909F908F90089580959095A09529
:100FE000B0954C015D018C209D20AE20BF208982F0
:100FF0009A82AB82BC82DCCF0F93CF93DF9300D079
:1010000000D0CDB7DEB7262F042F4091310250918A
:101010003202609133027091340249835A836B83A8
:101020007C83482F69817A818B819C810E948E0705
:101030000F900F900F900F90DF91CF910F910C9424
:10104000C71D0E94FD220E94F420811102C00E944F
:101050008E210C94630A0C94660A08950C942D0852
:1010600081E008950C943008CF93C82F0E942E0879
:101070008C2FCF910C94320808950E943F1A0E9441
:101080003C082FEF84E39CE0215080409040E1F742
:1010900000C000000C94EA220F931F93CF93DF93BC
:1010A000EC0161E00E94BF068C01BE010E94F410B9
:1010B000882389F1BE01C8010E948706882359F15F
:1010C000BE01C8010E940B14882329F1BE01C8018A
:1010D0000E944F148823F9F0BE01C8010E94221516
:1010E0008823C9F0BE01C8010E94AD0F882399F082
:1010F0008A81882339F001158CE5180751F00E3DDF
:101100001C4579F0CE01DF91CF911F910F910C9486
:1011100085060E943D0880E0DF91CF911F910F91DD
:1011200008950E948E21F7CFCF93DF930E94D412AF
:101130000E948709EC01811522E5920708F062C040
:10114000811531E5930708F0B5C0883E910518F583
:10115000803E9105B8F5883A910570F4853A91057D
:1011600008F0A2C08130910569F10497813A910598
:1011700048F1D0E0C0E026C0885A91094797C8F7E7
:10118000C85AD0E0CC0FDD1FC45DDE4F0990D88176
:10119000C02DD46417C0811540E59407B8F4C1157B
:1011A00080E4D80708F083C0CF3FD10509F028F4C8
:1011B000C03FD105F0F2D06505C0CE019A958115EA
:1011C0009F41B8F6CE01DF91CF910895F4E0969556
:1011D0008795FA95E1F783702C2F26952695237035
:1011E00040E2249F90011124382B8C2F8370C1E0A2
:1011F000D0E002C0CC0FDD1F8A95E2F7C22BD32BC3
:10120000DC68E0CFC11586E5D80730F5C11595E556
:10121000D90708F063C0C11524E5D207C0F48C2FAC
:10122000869586959E0123703327C115D34508F016
:1012300046C0C1E0D0E002C0CC0FDD1F2A95E2F726
:1012400020E2829FC0011124C82BD92BD9CFDC2FDB
:10125000CC27C46FD06AB6CFC1153AE5D30788F45E
:10126000C11549E5D40708F044C0CE0198558F3F19
:10127000910511F008F07DCFDC2FCC27C06FD06A2C
:10128000A1CFCE0190568115904208F072CF8D2FDC
:101290008F710E941F0A90E0982F882788279F71DE
:1012A0009C012C2BE90123C0A497D0648BCFDF7065
:1012B000D06A88CFD82FCC27C16FD06A83CFC1E046
:1012C000D0E002C0CC0FDD1F2A95E2F730E2839F09
:1012D000C0011124C82BD92BDA6874CF8C2F0E943F
:1012E0001F0AC82FD0E0DC2FCC27CC27DF71D062BB
:1012F00069CF8C2F8F700E941F0A34E0D695C79556
:101300003A95E1F7CF70DC2FC82FD0695BCF803ED4
:10131000910599F1C8F48133910509F476C048F438
:101320008932910509F46AC08A32910509F474C0C2
:10133000089589339105D1F082389105B9F085334C
:10134000910509F454C00895843E910599F138F44B
:10135000823E9105F9F0833E910509F10895863E9C
:10136000910599F1873E9105B9F1089520914E02BA
:101370002370A1F080EE90E0089520914E0220FDB0
:1013800052C030914F0230FF09C024FF4FC090E09F
:1013900080E004C020914E0222FDF7CF08952091F5
:1013A0004E0222FD46C030914F0230FDE3CF24FFB4
:1013B000F5CFEDCF20914F0221FFF0CF80914E026B
:1013C00084FDE5CF87EE90E0089520914E0223FF43
:1013D000E5CF24FDDCCFF6CF20914E0223FD2CC0BB
:1013E00030914F0231FFE3CF84EE90E008952091D9
:1013F0004E0225FFD3CF89E290E0089520914E025E
:1014000025FFCCCF85E390E0089520914E0226FF82
:10141000C5CF8AE290E0089520914E0226FFBECF0C
:1014200081E390E0089589E390E0089583EE90E0F1
:10143000089582EE90E0089586EE90E008959091F0
:101440004E0292FF06C0282F28712830F9F4877FBA
:10145000846093FF06C0282F28712831F1F4877E1D
:10146000846120914F0220FF06C0382F3871383038
:10147000D9F4877F816021FF06C0282F2871283189
:10148000D1F4877E816194FD877E0895282F247191
:101490002430F9F68B7F8860DCCF282F247124312B
:1014A00001F78B7E8861DDCF382F3171313019F72C
:1014B0008E7F8860E0CF282F2171213121F78E7E29
:1014C0008861E1CF08950C94620A08950C94650A2E
:1014D000E82FF0E0EC54FE4F8081089508950E94BB
:1014E000EF0386E0EAEBF1E0DF01982F1D929A9579
:1014F000E9F7E4EBF1E0DF011D928A95E9F786E078
:101500000E94970A0C942108CF938AEB91E00E94E5
:101510000E04C82F282F46E064EB71E08AEB91E0BF
:101520000E94980A0E942B088C2FCF91089508954D
:10153000FF920F931F93CF93DF93F82E092F162F4F
:10154000D72FC42F222349F081E08093C2010E944B
:101550008B229093C1018093C0018091C2018823A6
:10156000A1F08091C0019091C1010E94B72206971D
:1015700060F0EF2DF02FA12FBD2FCF018C0F911D0B
:10158000E817F90741F41092C201DF91CF911F9142
:101590000F91FF90089521912D93F2CFAF92BF92BA
:1015A000CF92DF92EF92FF920F931F93CF93DF932F
:1015B000362F472FE82FF0E0E850FE4F71110EC094
:1015C0006491762F862FDF91CF911F910F91FF901D
:1015D000EF90DF90CF90BF90AF900895C72FD0E0ED
:1015E000249186E0689F700111240FEF10E0C7017D
:1015F000B8010E94A530832F90E0880F991F35E530
:10160000369FF001379FF00D11248E1B9F0B982FF2
:10161000990F980FF801EC1BFD0B2E9FD0012F9F07
:10162000B00D1124EB2F949FA0011124452F5527B5
:101630006801C41AD50AA601249F6001259FD00C19
:1016400011248D2D5801A91AB108AC9EA001AD9EA0
:10165000500DBC9E500D1124452F5527041B150B12
:10166000209FA001219F500D112463307105D9F0F6
:101670009CEFE91693E0F90668F461307105B9F062
:1016800062307105C1F09FEFE916F10448F48B2F29
:10169000E52F06C06430710589F066307105B9F335
:1016A0006E2F722F90CFED2D822F2B2FF9CFE22F9F
:1016B0002D2D8B2FF5CF852FE22FF7CF822F252FC2
:1016C000EFCF0895CF93DF93982F762F842FE901E2
:1016D000692F0E94CE0A798368838A83DF91CF9134
:1016E00008958091D001982F9E7F29F481708260A7
:1016F0008093D00108958E30E8F381708C60F8CF2C
:1017000088E090E00C94EF300F931F93CF93DF931A
:101710008B01D82FC92F0E94710BA8016D2F7C2F30
:1017200088E090E0DF91CF911F910F910C940D31E3
:10173000CF93DF9300D000D0CDB7DEB78091D0013A
:101740009091D101A091D201B091D30189839A8364
:10175000AB83BC83BC01CD010F900F900F900F9015
:10176000DF91CF910C94840BE0EDF1E083E0808376
:1017700011828FEF82838383148263E070E08FEFA6
:101780009FEF0C94840B8091D00180FF02C086955E
:10179000089580E00895CF93DF9300D000D0CDB7B7
:1017A000DEB78091D401833018F48F5F8093D40129
:1017B0008091D0019091D101A091D201B091D3013B
:1017C00089839A83AB83BC83BC01CD010F900F90BA
:1017D0000F900F90DF91CF910C94840BCF93DF93F8
:1017E00000D000D0CDB7DEB78091D401882319F0A6
:1017F00081508093D4018091D0019091D101A0912A
:10180000D201B091D30189839A83AB83BC83BC019D
:10181000CD010F900F900F900F90DF91CF910C940E
:10182000840B8091D4010895CF93DF9300D000D032
:10183000CDB7DEB78093D4016623B1F08091D0019B
:101840009091D101A091D201B091D30189839A8363
:10185000AB83BC83BC01CD010F900F900F900F9014
:10186000DF91CF910C94840B0F900F900F900F90FD
:10187000DF91CF91089560E00C94140C8091D10118
:1018800008958091D20108958091D301089570E068
:101890000C940A10609102018091D00180FF0AC06F
:1018A0008091010123E0829FC00111248C539E4F3F
:1018B0000C94470CE091030180910401E81780F734
:1018C0008E2F90E0FC01EE0FFF1FE80FF91FEC5385
:1018D000FE4F118210821282E3CF9091D00190FFCF
:1018E00014C0E091030190910401E91760F42E2FD8
:1018F00030E0F901EE0FFF1FE20FF31FEC53FE4F34
:101900008183608342830C944A0C0895CF93DF93C4
:1019100000D00F92CDB7DEB79091D00190FF0AC0F2
:101920009E012F5F3F4F0E94620B4B8169818A812C
:101930000E946D0C0F900F900F90DF91CF91089542
:10194000CF93DF9300D000D000D0CDB7DEB78D832A
:101950009E83ED81FE818481282F30E050E040E0BD
:1019600029833A834B835C83CA01B9010E94A62E66
:1019700020E030E04FE753E469837A838B839C83D4
:1019800069817A818B819C810E94C92D2BED3FE07A
:1019900049E450E469837A838B839C8369817A81EB
:1019A0008B819C810E94CF2F69837A838B839C8358
:1019B00069817A818B819C810E943C3069837A8322
:1019C0008B839C8369817A818B819C810E94432EC9
:1019D0002BE43AE34EE25FE369837A838B839C8353
:1019E00069817A818B819C810E945C2D20EF3BEF85
:1019F00048ED52E469837A838B839C8369817A8181
:101A00008B819C810E94CF2F69837A838B839C83F7
:101A100069817A818B819C810E94752E462FE0ED31
:101A2000F1E0628181810E94860CED81FE818481DA
:101A30008F5F848326960FB6F894DEBF0FBECDBFAE
:101A4000DF91CF910895EF92FF920F931F93CF9361
:101A5000DF9300D000D000D00F92CDB7DEB7F82EC4
:101A6000062F142FE22E9091D00190FF3FC0E92F56
:101A7000E695F0E0E65AFE4F80818093CE019E7F8E
:101A8000923079F59E012F5F3F4F8F2D0E94620BA0
:101A90004B8169818A810E946D0CF092D101009383
:101AA000D2011093D301EE2009F18091D0019091E1
:101AB000D101A091D201B091D3018C839D83AE83DB
:101AC000BF83BC01CD0127960FB6F894DEBF0FBED1
:101AD000CDBFDF91CF911F910F91FF90EF900C94AC
:101AE000840B8230D1F61091D301D7CF27960FB651
:101AF000F894DEBF0FBECDBFDF91CF911F910F9144
:101B0000FF90EF900895282FE0EDF1E0818143816F
:101B10006281885F0C94230D81E00C94830D282F43
:101B2000E0EDF1E081814381628188500C94230DC6
:101B300081E00C948F0D282FE0EDF1E0628138E018
:101B4000630F08F46FEF438181810C94230D81E0D2
:101B50000C949B0D282FE0EDF1E0628138E0631BCF
:101B600008F460E0438181810C94230D81E00C94A2
:101B7000AA0D282FE0EDF1E0438138E0430F08F48F
:101B80004FEF628181810C94230D81E00C94B90D9B
:101B9000282FE0EDF1E0438138E0431B08F440E0FA
:101BA000628181810C94230D81E00C94C80D20E0AA
:101BB0000C94230D0F931F93CF93DF9300D00F92BC
:101BC000CDB7DEB78C018091C30181110AC09E019F
:101BD0002F5F3F4F4FEF6FEF0E94620B8A81809320
:101BE000C301F8016481613049F06230F1F0809105
:101BF000C30140E0662331F040E019C06091C301A9
:101C000040E080E00E946D0CF801848190E0019634
:101C100063E070E00E94B93084830F900F900F90C2
:101C2000DF91CF911F910F9108954091C30180E002
:101C300060E0E8CFCF93DF9300D000D0CDB7DEB720
:101C4000E0EDF1E080818E7F808380819181A281AF
:101C5000B38189839A83AB83BC83BC01CD010E948D
:101C6000840B1092CF019FEFA0E7B2E09150A0400B
:101C7000B040E1F700C000000F900F900F900F9060
:101C8000DF91CF910C944A0CE0EDF1E080818E7FE2
:101C900080831092CF012FEF80E792E021508040A7
:101CA0009040E1F700C000000C944A0C6091D00114
:101CB000669570E041E050E086E091E00E94DA3005
:101CC000892B19F481E08093CF010E948B2290939D
:101CD000C8018093C7010895CF93DF9300D000D04F
:101CE000CDB7DEB79091D00190FF41C091708111C6
:101CF00034C092609093D001662381F08091D0012E
:101D00009091D101A091D201B091D30189839A839E
:101D1000AB83BC83BC01CD010E94840B6091D001D8
:101D2000669570E041E050E086E091E00E94DA3094
:101D3000892BD1F01092CF0181E08093CA014091AC
:101D4000D3016091D2018091D1010F900F900F903B
:101D50000F90DF91CF910C94D70D873010F09C60DD
:101D6000C9CF880F982BC6CF0E94560EE5CF0F9093
:101D70000F900F900F90DF91CF910895682F809171
:101D8000D00186958F5F873008F081E00C946C0E4F
:101D900081E00C94BE0E682F9091D00196958FEF44
:101DA000890F913009F486E00C946C0E81E00C945C
:101DB000CB0E61E00C946C0EE0EDF1E0808181606F
:101DC000808386950C94D90E8091D00180FD0C946F
:101DD0001A0E0C94DC0E60E00C946C0E8091CD0118
:101DE00081112EC00E94F420811104C00E948E2116
:101DF0000E94B40B0E94800B6093D0017093D101BC
:101E00008093D2019093D3016E7F61F40E94B40B52
:101E10000E94800B6093D0017093D1018093D20116
:101E20009093D3010E94710B1092CF018091D00149
:101E300080FF03C086950E94EB0E81E08093CD0168
:101E40000895E0EDF1E080818160808386950C94B7
:101E5000EB0E6093D0017093D1018093D2019093E7
:101E6000D30160FF04C0862F86950C94EB0E109270
:101E7000CF010C944A0C1092CF0108950F931F9339
:101E8000CF93DF938091CF01882309F44FC08091D5
:101E9000CE01E091D001E695E81BE093C9018230C4
:101EA000C1F5F0E0EC50FE4FE491CE2FD0E000EA17
:101EB0001CE08091CA01882389F01092CA010E9417
:101EC0008B229E0120953095280F391F3093C80131
:101ED0002093C7011092CC011092CB018091C701D1
:101EE0009091C8010E94B7228C179D07F8F0E091ED
:101EF000C701F091C801CE0FDF1FD093C801C09376
:101F0000C70187EC91E0F801DF91CF911F910F910C
:101F10000994C0EDD7E001E61BE0863051F6E2EF10
:101F2000F1E0C591D4910AED1DE0C3CFDF91CF91CF
:101F30001F910F910895FA0181110994FB01FDCFC2
:101F40000E94C30B823030F00E94C30B853010F426
:101F50000C94C80E82E00C94D90E0F931F93CF936C
:101F60008C01FB01C281CC2309F452C00E94FF1FE7
:101F70008272F801E25CFC45E431F10538F4EF5C73
:101F8000FE4C0C94CD300E94E40EC0E08C2FCF911B
:101F90001F910F91089546ED5EE068EC7EE00E948F
:101FA0009B0FF3CF48EC5EE066ED7EE0F8CF48E9AA
:101FB0005DE06CE87DE0F3CF4CE85DE068E97DE052
:101FC000EECF46EB5DE067EA7DE0E9CF47EA5DE012
:101FD00066EB7DE0E4CF44ED5DE065EC7DE0DFCFD6
:101FE00045EC5DE064ED7DE0DACF4EEE5BE06BEC5E
:101FF0007BE0D5CF4BEC5BE06EEE7BE0D0CF81E0B9
:102000000E94D90EC2CF0E94A00FBFCF86E0F8CFAA
:10201000C1E0BCCF9C01AB01529A6BB16B7F7BB12D
:102020007460EFB7F894CA01880F991F840F951F49
:10203000820F931F8217930741F4EFBF8FE594E05F
:102040000197F1F700C000000895D9014D919D015D
:1020500058E07BB9000000C047FF6BB9440F000097
:1020600000C000C000C06BB900C05A9591F7E2CF24
:102070000C94E60523982B9A22982A9A83B183FB25
:10208000882780F91A9905C090E0892B8093D701A1
:10209000089592E0FACFE091D701EE0FEE0FE093B2
:1020A000D70143B143FB882780F943B142FB222784
:1020B00020F942FF02C022E030E0822BE82BE093BF
:1020C000D701EF70F0E0EF59FE4F80819091D6017B
:1020D000890F8093D60184304CF08091D5018F5FB9
:1020E0008093D50160E080E00E9438108091D60195
:1020F0008D3F4CF48091D50181508093D50161E0F2
:1021000080E00E9438109091D601892F837897FF44
:1021100003C081508C6F8F5F8093D601089586E451
:1021200090E00E94E730813289F487E490E00E94D9
:10213000E730843059F488E490E00E94E73091E081
:10214000843209F090E0892F8170089580E0FCCFFF
:10215000CF93C82F6FEF811161E286E490E00E9477
:10216000FB306FEFC11164E087E490E00E94FB3028
:102170006FEFC11164E288E490E0CF910C94FB30E2
:1021800080E00E94A8100C94EE200895CF93DF9376
:1021900000D000D0CDB7DEB789E490E00E94E730F0
:1021A000282F30E050E040E0CA01B9010F900F90B5
:1021B0000F900F90DF91CF91089589E490E00C94F7
:1021C000FB300E94C5100E948F1081110CC060E08E
:1021D00070E0CB010E94DD100E9498050E942E1332
:1021E00081E00C94A8100895CF939C01FB01C2815B
:1021F000CC2301F182519F45409720F58EEE820F4E
:102200000E943E13C0E08C2FCF91089581E00E9480
:10221000FD1D43E062E081E00E94FC07F3CF81E016
:102220000E942E1E43E062E081E00E94FC07EBCF9B
:1022300082E0F6CF80319F4591F321313F45C1F3D4
:10224000C1E0E1CF2031EFE53E0701F382E021312B
:102250003F45E9F2D8CFEF92FF920F931F93CF93B0
:10226000DF93CDB7DEB72E970FB6F894DEBF0FBE63
:10227000CDBF8D839E83162FAD81BE81EC91E15041
:10228000E33108F002C1F0E0EB5BFE4C0C94CD3082
:10229000ED81FE81118289E08283612F8D819E8193
:1022A0002E960FB6F894DEBF0FBECDBFDF91CF9153
:1022B0001F910F91FF90EF900C948B26AD81BE8102
:1022C00011968C91823099F0833011F1813081F533
:1022D0000E9497220E94D3306F83788789879A87DC
:1022E000ED81FE816283738384839583D6CF0E94C0
:1022F000C6100E94D3306B877C878D879E87AD8107
:10230000BE8112966D937D938D939C931597C5CF47
:10231000ED80FE80B2E0EB0EF11C00E0802F0E9409
:10232000680AF70181937F010F5F0630B9F7B5CFD7
:10233000612F8D819E810E947904AFCFAD81BE81D6
:1023400011968C911197823099F712968D919D91EB
:102350000D90BC91A02D89839A83AB83BC83BC0173
:10236000CD010E94D3300E94DD1097CFED81FE8118
:102370004381628181810E945E1298278927982774
:10238000AD81BE8115969C938E93149786CFED8177
:10239000FE812481358132272327322743816281C0
:1023A00081810E94771279CF0E94980576CF0E9492
:1023B000E112AD81BE8111968C936FCF0E94E31222
:1023C000982789279827ED81FE819283818365CFA5
:1023D000AD81BE8113966C91139770E011968D912B
:1023E0009C911297AD014C5F5F4F982789279827E2
:1023F0000E94E61252CFED81FE81638170E08181FF
:102400009281AF014C5F5F4F9827892798270E94E0
:102410000B1343CF0E942E1340CF0E944A12C9CF04
:10242000ED81FE81638170E081819281AF014C5F1B
:102430005F4F9827892798270E948C122ECFAD8155
:10244000BE8113966C91139770E011968D919C91BB
:102450001297AD014C5F5F4F9827892798270E94FC
:10246000B1121BCF0E94C01018CF8D819E810E9497
:102470008B26BFEFE1EEF4E0B150E040F040E1F731
:1024800000C000000E94EA2208CF8FEFAD81BE811C
:102490008C9303CF88E0089598E0699FB0011124E0
:1024A00050E0440F551F640F751F90E3899F600D26
:1024B000711D1124CB01865B9F4F08950F931F93CD
:1024C000CF93DF930E944C128C010E94E730C82FFB
:1024D000D0E0DC2FCC27C80101960E94E7309E0196
:1024E000282BC901DF91CF911F910F9108950F9370
:1024F0001F93CF93DF93122F032F0E944C12EC01F6
:10250000602F0E94FB30612FCE010196DF91CF91A9
:102510001F910F910C94FB30EF92FF920F931F933A
:10252000CF93DF938C01EA017A01E60EF71EC80112
:10253000865B9F4FCE15DF0539F4DF91CF911F9158
:102540000F91FF90EF900895003821E0120738F4C2
:102550000E94E730888321960F5F1F4FE8CF1882D3
:10256000FACFEF92FF920F931F93CF93DF938C01DB
:10257000EA017A01E60EF71EC801865B9F4FCE1571
:10258000DF0539F4DF91CF911F910F91FF90EF900C
:102590000895003821E0120718F468810E94FB308A
:1025A00021960F5F1F4FE8CF462F672F883030F4FA
:1025B000763020F4443010F40C945E1290E080E009
:1025C000089580E1089586E392E00895EF92FF92E6
:1025D0000F931F93CF93DF938C01EA017A01E60EEC
:1025E000F71EC80186539E4FCE15DF0539F4DF91E3
:1025F000CF911F910F91FF90EF900895063322E045
:10260000120738F40E94E730888321960F5F1F4F2E
:10261000E8CF1882FACFEF92FF920F931F93CF93D8
:10262000DF938C01EA017A01E60EF71EC80186539A
:102630009E4FCE15DF0539F4DF91CF911F910F9199
:10264000FF90EF900895063322E0120718F4688196
:102650000E94FB3021960F5F1F4FE8CFCF93DF938F
:10266000CAECD1E060E0CE010E94FB302196C1159A
:1026700084E0D807B9F7DF91CF910895DF92EF9208
:10268000FF920F931F93CF93DF9300D000D0CDB76D
:10269000DEB7F82E8FE08F1540F08FEF93E00E94A9
:1026A000E7300AEC11E08823C1F00F900F900F90F3
:1026B0000F90DF91CF911F910F91FF90EF90DF90DE
:1026C0000895011584E0180781F3C8010E94E730DE
:1026D000811101C0FA940F5F1F4FF110F2CF80916A
:1026E0001C0190911D01A0911E01B0911F018983D1
:1026F0009A83AB83BC83DD24D39478018FEFE81AEF
:10270000F80AC8010E94E73089831A82882369F297
:102710009FEF980F933080F48A83D9820E5F1F4F0A
:10272000C7010E94E7308B83882309F4BECFCE0116
:1027300001960E948B07E1CF8701F9CF0F931F937A
:10274000CF93DF93C62FD42F022FFC0182818823E1
:10275000C9F06093DA010E948B229093D901809393
:10276000D80180E28C0F883008F050C0C77081E03B
:1027700001C0880FCA95EAF7DF91CF911F910F91A1
:102780000C9483171091DA01161335C08091D8018B
:102790009091D9010E94B722883C910560F5C0E272
:1027A000CD0F1D17B9F080E2810F883040F417700B
:1027B00081E001C0880F1A95EAF70E948A17C83095
:1027C00048F481E09D2F977001C0880F9A95EAF731
:1027D0000E948317802F0E947017C830B8F4D770FA
:1027E00081E001C0880FDA95EAF7DF91CF911F9160
:1027F0000F910C948A1780E28C0F883038F4C770E0
:1028000081E001C0880FCA95EAF7EFCFDF91CF9141
:102810001F910F9108959C01CB01233F4CE5340794
:1028200069F190F4283DFCE53F0721F1293D4CE595
:10283000340781F1273D3C45B1F0FC0182818823BA
:1028400061F11092DA010895253FFCE53F07D1F0D0
:10285000263F4CE53407D1F0243F3C4571F727E291
:1028600045EE64EE03C026E241EE61EE0E949E1347
:1028700080E0089527E245EE65EEF8CF26E241EECE
:1028800060EEF4CF26E241EE62EEF0CF27E245EEB5
:1028900066EEECCF28E241E0EFCF81E00895CF93E0
:1028A000DF93EC01FB018281882309F4C9C0C631A2
:1028B000FCE5DF07E0F4C2309CE5D907F0F00E94A8
:1028C000072190934F0280934E02C631ECE5DE075C
:1028D00020F5C230FCE5DF0798F480914E0290911C
:1028E0004F020E9415210E943F1A80E006C09E01FF
:1028F0002A5F3C452930310510F3DF91CF910895CF
:10290000FE01E350FC4580914E028160E331F10508
:1029100088F4E85AFE4C0C94CD30CA5FDC45C930CF
:10292000D105D8F6C559DE4CFE010C94CD3080910E
:102930004E02826080934E02D0CF80914E0284601E
:10294000F9CF80914E028860F5CF80914F0281606F
:1029500080934F02C2CF80914F028260F9CF809165
:102960004E028061E7CF80914E028062E3CF80917A
:102970004E028064DFCF0E943F1A80914E02806831
:10298000D9CF80914E028C60D5CF80914F02836069
:10299000DFCF80914E028E7FCDCF80914E028D7F12
:1029A000C9CF80914E028B7FC5CF80914E02877F29
:1029B000C1CF80914F028E7FCBCF80914F028D7F10
:1029C000C7CF80914E028F7EB5CF80914E028F7D12
:1029D000B1CF80914E028F7BADCF0E943F1A809184
:1029E0004E028F77A7CF80914E02837FA3CF809135
:1029F0004F028C7FADCF80914E0282FB992790F9D8
:102A000021E0922790FB82F990FB83F993CF80918C
:102A10004F02982F909591708E7F892B90FB81F9B2
:102A200097CF0E943F1A90914E02892F97FB87F90A
:102A3000805880CF81E00E9490214FCF80E0FBCF73
:102A400081E05BCFCF93DF93EB0186319C4511F59D
:102A50000E94FF1F9A81992399F08A7A91E009F4E4
:102A600090E09093DB01811109C089E20E94DA1F96
:102A70000E94402080E0DF91CF91089585E3F6CF5A
:102A80008091DB01811104C089E20E94E11FF0CF37
:102A900085E3FBCF81E0EFCF9093E1018093E001EC
:102AA0000895E091E001F091E101309721F001906B
:102AB000F081E02D099480E00895E091E001F0912B
:102AC000E101309721F00280F381E02D099408950F
:102AD000DC01E091E001F091E101309739F082E012
:102AE0008C930480F581E02DCD0109940895209107
:102AF000DE013091DF012817390771F09093DF0173
:102B00008093DE01E091E001F091E101309721F046
:102B10000680F781E02D099408952091DC01309121
:102B2000DD012817390771F09093DD018093DC01F6
:102B3000E091E001F091E101309721F00084F1850E
:102B4000E02D0994089585B7806885BF85B78068B2
:102B500085BF0895089508950E94A3150E94AA159F
:102B60000C94410481E008950C94B2150E948222D5
:102B70000E946F0A0E94E1100E9411230E94EE0E33
:102B80000E943A100C943A04BF92CF92DF92EF92D7
:102B9000FF920F931F93CF93DF9300D000D00F923B
:102BA000CDB7DEB70E94840A0E94B415882309F4C9
:102BB00062C083EEC82E81E0D82E10E000E0B02E77
:102BC000802F0E94680AF82EF601E1906F01E81646
:102BD00009F44BC08091460281FD0E946E0A9E2D31
:102BE0009F2580E0EE24E394292F2E21C9F18983CB
:102BF000BA82FE2081E009F480E08B830E948B2260
:102C00008160782F9D838C8349815A816B818D816E
:102C10000E945B16F801ED51FE4F8081E826E082AC
:102C20000E943E0F0E944B100E94B0240E9451153A
:102C30009091E201891781F10E9451158093E20180
:102C40000F900F900F900F900F90DF91CF911F91E9
:102C50000F91FF90EF90DF90CF90BF900C943408CD
:102C60008F5FEE0C843009F0BFCF0F5F1F4F06302F
:102C7000110509F0A4CF8FEF89838A831B820E94FC
:102C80008B228160782F9D838C8349815A816B814F
:102C90008D810E945B16C4CF0F900F900F900F9004
:102CA0000F90DF91CF911F910F91FF90EF90DF90E8
:102CB000CF90BF900895CF93DF93CDB7DEB72B971A
:102CC0000FB6F894DEBF0FBECDBF4F83588769871C
:102CD0007A878B871E8285E0FE013796DE0111968A
:102CE00001900D928A95E1F749815A816B817C812F
:102CF0008D819E812B960FB6F894DEBF0FBECDBF9F
:102D0000DF91CF910C94A11CFC01808191810C94E6
:102D1000A41FCF93C82F882309F48AC08238C1F436
:102D20000E94511581FD84C089E30E94DA1F0E9430
:102D300040202FEF31EE84E0215030408040E1F719
:102D400000C0000089E30E94E11FCF910C94402055
:102D50008338A1F40E94511580FD6AC083E50E946A
:102D6000DA1F0E9440209FEF21EE34E09150204076
:102D70003040E1F700C0000083E5E5CF8438A1F4DE
:102D80000E94511582FD54C087E40E94DA1F0E9400
:102D900040208FEF91EE24E0815090402040E1F7F9
:102DA00000C0000087E4CFCF8CEF8C0F813A90F405
:102DB0006C2F80910701909108010E94A721882320
:102DC00029F08C2F0E94E11F0E9440208C2F0E942E
:102DD000DA1FBBCF80E28C0F883048F4C77081E0E7
:102DE00001C0880FCA95EAF70E940220AECF8BE59A
:102DF0008C0F833038F42C2F2452330BC901CF9120
:102E00000C947715E8E5EC0FE73150F4F0E0EE0FA5
:102E1000FF1FEF58FE4F80819181CF910C948D154B
:102E2000C03F30F08C2F0E94BE23CF910C94A5247C
:102E3000CF910895882309F452C0823871F40E941A
:102E4000511581FF4CC089E30E94DA1F0E94402087
:102E500089E30E94E11F0C944020833859F40E94BA
:102E6000511580FF3CC083E50E94DA1F0E9440207C
:102E700083E5EFCF843859F40E94511582FF2FC0AB
:102E800087E40E94DA1F0E94402087E4E2CF9CEF93
:102E9000980F913AF0F290E2980F983050F48770C2
:102EA00091E001C0990F8A95EAF7892F0E940820C6
:102EB000D2CF9BE5980F933020F490E080E00C9403
:102EC000771598E5980F973120F490E080E00C9406
:102ED0008D15803F20F00E9426240C94A52408958F
:102EE000CF93C82F0E948916C93349F42FEF87EE7C
:102EF00093E0215080409040E1F700C000008C2F0B
:102F0000CF910C941A17882321F00E9402200C9470
:102F100040200895882321F00E9408200C9440202E
:102F20000895AF92BF92CF92DF92EF92FF920F93EC
:102F30001F93CF93DF9300D000D00F92CDB7DEB7B1
:102F40006C016D837983FC01058102950F701281FC
:102F500011110E9421200E94F81FE82E882391F071
:102F60001123E1F08981807F803421F08D81805EA2
:102F70008830A0F082E00E948B200E94F81F91E030
:102F8000E82EE926898182958F70A82EB12C8C308D
:102F9000B8F5F501EC58FE4C0C94CD30E12CF2CF95
:102FA00009810F70F981F07F11F00295007F1123E4
:102FB000B1F0002361F08D81805E883018F01D81B2
:102FC000111109C0802F0E9402200E9440208D8193
:102FD0000E94891615C0802F0E941320F6CF8D8184
:102FE0000E941A17002361F08D81805E883018F0EE
:102FF0001D81111133C0802F0E9408200E944020A3
:1030000098E0A91AB108E4E0AE16B10420F40E94D9
:1030100051150E943408EE2009F4BEC10E94F41F2D
:1030200080FDBAC1F60112820E94EE1F0E94FD1DB2
:10303000C6010E94F3190E94EE1F0F900F900F908F
:103040000F900F90DF91CF911F910F91FF90EF9014
:10305000DF90CF90BF90AF900C942E1E802F0E94D7
:103060001920CCCF29812F70F22E3981307F303258
:1030700019F0F29480EFF8228D81882369F0813075
:1030800049F1112391F1002351F1F601858180FF6F
:103090009ECF8F70858323C0112381F0011106C05C
:1030A0000E9427208F290E948317AACF0130C1F7E1
:1030B0000E9427208F290E942D20A2CF011106C037
:1030C0000E9436208F2D0E948A179ACF013009F472
:1030D00097CFF6CF112329F0063008F091CF8F2D2E
:1030E000E2CF053008F08CCFEDCF002359F30D81EE
:1030F000093349F41FEF27EE33E0115020403040F0
:10310000E1F700C000008D810E941A1779CF8981F4
:1031100086958695837069F0813009F071CF8D8135
:1031200099819370111102C090E080E00E948D158A
:1031300067CF8D8199819370111102C090E080E07A
:103140000E9477155DCF8D81112329F00E94BE2347
:103150000E94A52455CF0E942624FACF898183702E
:1031600009F050C011114CCF2D8122952695277062
:10317000220F220F8D818F7090E0B0E0A0E0022E30
:1031800004C0880F991FAA1FBB1F0A94D2F70D8194
:1031900040E050E0BA0104FF0FC04FE050E060E0B3
:1031A00070E004C0440F551F661F771F2A95D2F7A1
:1031B00040955095609570951981169516951370E8
:1031C0001D838A019B01082B192B2A2B3B2B09837A
:1031D0001A832B833C831D8169817A818B819C8139
:1031E000123051F0133059F0113019F00E94751D52
:1031F00007CF0E944D1D04CF0E949D1D01CF0E944C
:103200004B1DFECE112309F448C0098100FFF8CE02
:103210002D81229526952770220F220F8D818F7088
:1032200090E0B0E0A0E0022E04C0880F991FAA1F12
:10323000BB1F0A94D2F70D8140E050E0BA0104FFB1
:103240000FC04FE050E060E070E004C0440F551F35
:10325000661F771F2A95D2F7409550956095709517
:1032600019811695169513701D838A019B01082BF1
:10327000192B2A2B3B2B09831A832B833C831D811B
:1032800069817A818B819C81123071F0133079F0E1
:10329000113039F00E94BC1EB3CE198111FFB0CE9F
:1032A000B7CF0E94941EACCE0E94E41EA9CE0E940D
:1032B000C71DA6CE09810F700983112329F0802F25
:1032C0000E94FD1D8D81EFCE8D810E948A1789811C
:1032D0000E942E1E95CE2D81223FA1F160F4203F49
:1032E000E1F0213F41F1112309F445C001116FCEF6
:1032F00089818F7124C03D81333F49F1343F99F773
:10330000112379F109810F710983802F0E94FD1D1E
:1033100063E089810E94762073CE112341F005304D
:1033200008F06ECE89818F710E94631E69CE0630CF
:1033300008F066CEF7CF89818F71112349F20E9480
:10334000FD1D5ECE89818F711123C9F3C1CF112379
:1033500029F089818F710E94D81D52CE0E94D31D01
:103360004FCE81E00E948B20023008F449CE82E0EB
:103370000E948B2045CE002361F01D81193309F096
:10338000C2CE2FEF37EE83E0215030408040E1F78E
:10339000B8CE89818F719CCF0F900F900F900F90B6
:1033A0000F90DF91CF911F910F91FF90EF90DF90E1
:1033B000CF90BF90AF9008950F931F93CF93DF935B
:1033C000EC01688179818A810E94B01F8C010E9482
:1033D0000C1F0E944A1DB801CE01DF91CF911F91B1
:1033E0000F910C949117CF93DF93EC018B819C810B
:1033F000892B29F08981988189238F3F59F4DF91A6
:10340000CF910895CE010E94DC19CE01DF91CF91BA
:103410000C94C806CE010E944C088111F3CF0E9483
:10342000F81F882361F38A81882349F382E0DF91C2
:10343000CF910C948B20882321F00E9413200C94B0
:1034400040200895882321F00E9419200C944020E8
:1034500008950E9421200E9424200E9440200E9462
:10346000CF250E94A52490E080E00E94771590E08F
:1034700080E00C948D150E94E81F0C94291A0E947C
:1034800010200C943B1A282F892F82958F70903C26
:1034900080F48A30B0F4843020F4823090F480E0FC
:1034A00008958630E1F781E0283E88F0213FB9F7A2
:1034B0000EC08C3011F08F3091F793FB882780F984
:1034C000089581E0203F39F018F4283E40F7089530
:1034D000243F29F7FCCF08950E94A41F0C94431A9F
:1034E000CF93DF9300D000D00F92CDB7DEB70F900F
:1034F0000F900F900F900F90DF91CF910895CF9381
:10350000DF9300D000D000D0CDB7DEB726960FB63F
:10351000F894DEBF0FBECDBFDF91CF9108951F930A
:10352000CF93DF93E091EA0116E08091EB018E13D7
:1035300004C0DF91CF911F910895CE2FD0E01E9F40
:10354000F0011124E451FE4F408151816281738169
:10355000848195810E947F1AFE013196E770E5CF44
:1035600040911C0250911D0260911E0270911F0239
:1035700080912002909121020C947F1A1F93CF9387
:10358000DF9380912102807FA9F480911E0288231D
:1035900089F08091EA01C091EB0170911C02609169
:1035A0001D02A0911F02B0912002D62FD72316E052
:1035B000C81304C0DF91CF911F91089590E0109738
:1035C00011F0DF3F19F401968770F2CF189F900138
:1035D000199F300D1124F901E451FE4F418164130C
:1035E000F2CF40814713EFCF42814111ECCF4381AD
:1035F00054814A1B5B0B483C510528F780912102FE
:103600008F70806180932102F901EF50FE4F80811D
:103610008F70806180838CE192E00E94F319DF91CA
:10362000CF911F910C948F1AAF92BF92CF92DF92DD
:10363000EF92FF920F931F93CF93DF93CDB7DEB737
:103640002B970FB6F894DEBF0FBECDBF8C0185E07F
:10365000F801DE01179601900D928A95E1F7F801C5
:1036600040815181E2808CE1A82E82E0B82E6091E9
:103670001F02709120026115710549F090911C02A2
:1036800020911D02892F82238F3F09F045C1EE2032
:1036900009F453C14F8358878F8198850E946C1A13
:1036A000F82E882309F449C186E0F801ACE1B2E0C4
:1036B00001900D928A95E1F78CE192E00E948416C8
:1036C0000E94BE1A26C180912102382F307F683CAB
:1036D000710508F07CC03111B5C0FE2C251324C043
:1036E000941322C0E11020C08F708061809321026A
:1036F0000E94B01A8CE192E00E94F319809121029D
:10370000F80185838F2D2B960FB6F894DEBF0FBE80
:10371000CDBFDF91CF911F910F91FF90EF90DF9080
:10372000CF90BF90AF900895CD2829F0842F8523A6
:103730008F3F09F084C080E0F82FF170DF2EE09118
:10374000EA012091EB0136E080FD1CC0EE20D1F2B1
:1037500080912102816080932102F12CD3CF8E2FA2
:1037600090E03E9FF0011124E451FE4F618165130A
:1037700006C06081641303C062816E11E7CFFC0153
:103780003196E770E213EBCF4F8358878F8198858E
:103790000E94A41F292F22952F70903260F0225F83
:1037A0002F70223078F49F7051F0F8019581907F4E
:1037B00031F4D12C0AC09F7011F08823D1F3805EC0
:1037C0008830B8F3C8010E94F319FD2C9BCF31114A
:1037D0006EC06E2D7A858B850E94701A8CE192E006
:1037E0000E94F31986E0F50111928A95E9F70E948B
:1037F000B01AB3CF86E0F801ACE1B2E001900D92CF
:103800008A95E1F77FCF4F8358878F8198850E94F3
:103810006C1A81113DC08091210281608093210248
:10382000C8010E94F3196ECF6E2D7A858B850E9498
:10383000701A86E0F50111928A95E9F76AC081E075
:103840008E257ACF251306C0941304C0F801EE200C
:1038500009F453C04F8358878F8198850E946C1A52
:10386000882309F46AC0EE2009F467C08091210220
:10387000803270F020911C0230911D023A8329831E
:103880001B82DD82CC828E83CE0101960E94F319C9
:1038900086E0F801ACE1B2E001900D928A95E1F783
:1038A0000E94BE1A0E94B01AFF24F3942BCF251356
:1038B000D1CF9413CFCFE110CDCFF8018583C801CC
:1038C0000E94F31986E0F50111928A95E9F71ACF63
:1038D000251399CF941397CF8091210280FD8ACF31
:1038E000982F907F09F486CFF8018583903F31F0BF
:1038F000982F907F905F8F70892B8583C8010E94DD
:10390000F31986E0F801ACE1B2E001900D928A95DE
:10391000E1F70E94B01AF6CEC380D480F0901E0268
:10392000F601E61BF70BBF01F110CDCE683C710527
:1039300008F07ACFFE2CE110CBCFC8010E94F3191A
:10394000B3CF1F93CF93DF93CDB7DEB72C970FB6CE
:10395000F894DEBF0FBECDBF4F83588769877A8743
:103960008B879C87CE0107960E94141B882369F0E1
:103970008A859B85892B39F058854F81852F842333
:103980008F3F09F071C016E05FC086E0FE013796F8
:10399000DE01119601900D928A95E1F78A859B854B
:1039A000892B89F38F81988589238F3F61F320913B
:1039B000EB0130E0C9010196877099274091EA0137
:1039C0004817190671F40E943F1A1092EB011092E9
:1039D000EA0186E0ECE1F2E0DF011D928A95E9F769
:1039E000D2CF96E0929FD001939FB00D1124A451A5
:1039F000BE4FFE01319601900D929A95E1F78093AA
:103A0000EB010E948F1ABFCF819FC0011124845106
:103A10009E4F0E94141B8823E9F0E091EA011E9F4B
:103A2000F0011124E451FE4F408151816281738184
:103A3000848195810E947F1A8091EA0190E001962D
:103A4000877099278093EA018091EA019091EB01B8
:103A50008913DACF2C960FB6F894DEBF0FBECDBF18
:103A6000DF91CF911F91089569857A858B859C851B
:103A70000E947F1A88CF08950C943B1D0E943C1D24
:103A80006093350270933602809337029093380228
:103A90000C94291A08950C943E1DCF93DF9300D007
:103AA00000D0CDB7DEB769837A838B839C83809106
:103AB000350290913602A0913702B09138022981E7
:103AC0003A814B815C81282B392B4A2B5B2B298334
:103AD0003A834B835C83CA01B9010F900F900F901A
:103AE0000F90DF91CF910C943E1DCF93DF9300D0C8
:103AF00000D0CDB7DEB769837A838B839C838091B6
:103B0000350290913602A0913702B0913802298196
:103B10003A814B815C81282339234A235B23298303
:103B20003A834B835C83CA01B9010F900F900F90C9
:103B30000F90DF91CF910C943E1DCF93DF9300D077
:103B400000D0CDB7DEB769837A838B839C83809165
:103B5000350290913602A0913702B0913802298146
:103B60003A814B815C81282739274A275B272983A3
:103B70003A834B835C83CA01B9010F900F900F9079
:103B80000F90DF91CF910C943E1D0C94FA050E948A
:103B9000C51D60933102709332028093330290937B
:103BA00034020C94291A60E070E0CB010C94C71D1C
:103BB0000F931F93CF93DF9300D000D0CDB7DEB724
:103BC00041E050E060E070E08A019B0104C0000F1A
:103BD000111F221F331F8A95D2F709831A832B8363
:103BE0003C83C901B8010F900F900F900F90DF91A7
:103BF000CF911F910F910C94C71D0F931F93CF93DB
:103C0000DF9300D000D0CDB7DEB741E050E060E0F8
:103C100070E004C0440F551F661F771F8A95D2F7C6
:103C20008091310290913202A0913302B09134021E
:103C30008A019B01082B192B2A2B3B2B09831A8302
:103C40002B833C83C901B8010F900F900F900F9008
:103C5000DF91CF911F910F910C94C71D0F931F936C
:103C6000CF93DF9300D000D0CDB7DEB741E050E076
:103C700060E070E004C0440F551F661F771F8A95EF
:103C8000D2F7409550956095709580913102909152
:103C90003202A0913302B09134028A019B010823C1
:103CA00019232A233B2309831A832B833C83C901CD
:103CB000B8010F900F900F900F90DF91CF911F914F
:103CC0000F910C94C71D0F931F93CF93DF9300D0D8
:103CD00000D0CDB7DEB741E050E060E070E004C056
:103CE000440F551F661F771F8A95D2F780913102C6
:103CF00090913202A0913302B09134028A019B016B
:103D0000082719272A273B2709831A832B833C83FB
:103D1000C901B8010F900F900F900F90DF91CF91D4
:103D20001F910F910C94C71DCF93DF9300D000D04B
:103D3000CDB7DEB769837A838B839C838091310210
:103D400090913202A0913302B091340229813A81DC
:103D50004B815C81282B392B4A2B5B2B29833A839F
:103D60004B835C83CA01B9010F900F900F900F90A5
:103D7000DF91CF910C94C71DCF93DF9300D000D07B
:103D8000CDB7DEB769837A838B839C8380913102C0
:103D900090913202A0913302B091340229813A818C
:103DA0004B815C81282339234A235B2329833A836F
:103DB0004B835C83CA01B9010F900F900F900F9055
:103DC000DF91CF910C94C71DCF93DF9300D000D02B
:103DD000CDB7DEB769837A838B839C838091310270
:103DE00090913202A0913302B091340229813A813C
:103DF0004B815C81282739274A275B2729833A830F
:103E00004B835C83CA01B9010F900F900F900F9004
:103E1000DF91CF910C94C71D0895E92FEE0FEE0F9F
:103E2000E80F8E2F877041E001C0440F8A95EAF7B2
:103E3000E695E695E69585E0E89FF0011124EE5DB4
:103E4000FD4F30E020E070E05191DF011197CB0190
:103E5000022E02C0969587950A94E2F781708195AB
:103E60008527842385278C932F5F3F4F253031058D
:103E700059F70895E92FEE0FEE0FE80F9E2F977078
:103E8000E695E695E69585E0E89FF0011124EE5D64
:103E9000FD4F50E040E080E0219130E0092E02C06B
:103EA000369527950A94E2F721703327042E01C036
:103EB000220F0A94EAF7822B4F5F5F4F453051057E
:103EC00059F70895BF92CF92DF92EF92FF920F932E
:103ED0001F93CF93DF938C01C0903102D0903202B8
:103EE000E0903302F09034028091350290913602D6
:103EF000A0913702B0913802C82AD92AEA2AFB2AAF
:103F0000CFE1D0E0BC2ED701C6010C2E04C0B6957F
:103F1000A795979587950A94D2F780FD0EC02197B3
:103F200088F7B12C8B2DDF91CF911F910F91FF90CE
:103F3000EF90DF90CF90BF900895B8018C2F0E9432
:103F40009408019761F3EECFCF93DF93D82FC92F59
:103F50000E94621F6D2F7C2FDF91CF910C949408EB
:103F60001F93CF93DF93162FD72F9091E9019923B9
:103F700039F0862F972FDF91CF911F910C94A41FBA
:103F8000882391F0862F972F0E94621FC82F682FD9
:103F9000812F9D2F0E940D1F612F7D2F8C2FDF9170
:103FA000CF911F910C949408862F972F0E943A1F4F
:103FB000C82FF2CF682F80910701909108010C94CF
:103FC000E121682F80910701909108010C94E32171
:103FD00080910701909108010C94E52180913902AC
:103FE0008595859585950895809139028770089506
:103FF00090913902977081E009F480E008958091F2
:104000004502089590914502982B9093450208959A
:10401000982F9095809145028923809345020895B9
:1040200010924502089590914402982B9093440277
:104030000895982F9095809144028923809344029B
:1040400008951092440208951092430208958091B9
:104050003A02089508950C942A2090913A029817F4
:1040600021F080933A020C942B20089580913A021B
:10407000882329F010923A0280E00C942B200895B6
:10408000E0910701F0910801809145028083E09161
:104090000701F0910801808190914402892B80836F
:1040A000E0910701F0910801808190914302892BF2
:1040B000808390913A02992381F0E0910701F09179
:1040C00008018081892B80838091070190910801EC
:1040D0000E94952181110E943620809107019091C4
:1040E00008010C945D1508950C94732098E0899F45
:1040F00090011124622B609339020E94FD1D809172
:1041000039028595859585950C9474201092390215
:1041100080E00C94742090913902809589238093DB
:104120003902282F277071F4282F082E000C330B2A
:104130009217130639F08595859585950E942E1E58
:104140000C94862008950F931F93462F572FBC0180
:10415000CB01AA27BB270097A105B105E9F1AC0166
:10416000BD0180E1052F162F272F332701151105DB
:104170002105310519F0885FB901A8018A019B0169
:10418000F4E03695279517950795FA95D1F701151F
:1041900011052105310519F08C5FB901A8018A01CB
:1041A0009B01E2E03695279517950795EA95D1F79B
:1041B000011511052105310519F08E5FB901A8011E
:1041C0007695679557954795452B462B472B09F0D4
:1041D0008F5F1F910F91089580E0C4CF6FEF7FEF45
:1041E00090E080E00C94193190E080E00E94F5307E
:1041F0009C0181E02C3E3E4F09F080E0089582E072
:1042000090E00C94E73083E090E00C94E730CF939B
:1042100084E090E00E94E730C82F81E290E00E94A5
:10422000E730982F8C2FCF910895CF93682FC92F07
:1042300084E090E00E94FB306C2F81E290E0CF910F
:104240000C94FB308FE090E00C94EF30AB01BC019C
:104250008FE090E00C940D31AB01BC0183E190E064
:104260000C940D3160E070E0CB010C942C216CEECD
:104270007EEF90E080E00E94193160E082E090E003
:104280000E94FB3060E083E090E00E94FB301092DF
:10429000350210923602109237021092380260E016
:1042A00084E090E00E94FB3060E081E290E00E94B8
:1042B000FB3060E085E090E00E94FB3060E086E04B
:1042C00090E00E94FB306FEF87E090E00E94FB30AF
:1042D00040E050E0BA0188E090E00E940D3160E0DB
:1042E0008DE090E00E94FB3040E050E0BA0188E1B0
:1042F00090E00E940D3160E087E190E00E94FB3089
:1043000040E050E0BA018CE190E00E940D3160E0A5
:1043100080E290E00E94FB300C9465040C943721FD
:10432000682F8EE090E00C94FB30AC019C012E5F76
:104330003F4F485F5F4F80E02417350709F4089529
:10434000F90191919F019923B9F38F5FF5CF9C01FA
:10435000662351F0FC013296285F3F4F819186170A
:1043600029F0E217F307D1F780E0089581E008957E
:104370009C01FC0132968FEF90E04191461751F07D
:104380008F3F19F4411101C0892F9F5F9630A9F723
:104390008F3F09F40895280F311D87FD3A95F901E3
:1043A000628308959C01FC013296285F3F4F819102
:1043B000861303C0DF0111971C92E217F307B9F7C8
:1043C00008950C94B8210C94D221FC01329686E019
:1043D000DF011D928A95E9F70895089508950C94D8
:1043E000EE210E94EF2180916C02843009F439C0E3
:1043F0001092470288E190E020E40FB6F894A89567
:10440000809360000FBE2093600080E00E9434081B
:104410000E943B0F8091480281110AC081E0809385
:1044200048028091D0018170809349020E94440E1D
:104430000E94EF2183B7817F846083BF83B781604F
:1044400083BF7894889583B78E7F83BF0FB6F89427
:10445000A895809160008861809360001092600050
:104460000FBE08950895CF930E94ED210E94840A03
:104470000E943222C0E08C2F0E94680A811105C080
:10448000CF5FC630C1F7CF91089581E0FCCF08958A
:104490000C9447220E943F1A0E9451150E94340832
:1044A000109248028091490281110E94210F0E94BE
:1044B000560E0C9448221F921FB61F9211248F9300
:1044C0009F93AF93BF9380914702811113C0809156
:1044D0004A0290914B02A0914C02B0914D0241963C
:1044E000A11DB11D80934A0290934B02A0934C02F0
:1044F000B0934D02BF91AF919F918F911F901FBEBE
:104500001F90189582E084BD93E095BD9AEF97BD0A
:1045100080936E0008952FB7F89480914A0290918D
:104520004B02A0914C02B0914D022FBF0895CF9342
:10453000DF9300D000D0CDB7DEB78FB7F8942091CD
:104540004A0230914B0240914C0250914D02298316
:104550003A834B835C838FBF69817A818B819C8195
:104560000F900F900F900F90DF91CF9108959C01C5
:104570004FB7F89480914A0290914B02A0914C025F
:10458000B0914D024FBF821B930B089578941F92F8
:104590001FB61F9211248F939F93AF93BF93809167
:1045A0004A0290914B02A0914C02B0914D020196AB
:1045B000A11DB11D80934A0290934B02A0934C021F
:1045C000B0934D02BF91AF919F918F911F901FBEED
:1045D0001F90189587E797E790930108809300084C
:1045E00088E19AE00FB6F894A895809360000FBE1A
:1045F00090936000FFCF0C94C0100E94840A8FE358
:104600009CE90197F1F700C000000E94840A85E050
:104610000E94680A80FF04C00E94FB220C94EA22D8
:104620000895CF93DF9300D000D0CDB7DEB70E94BE
:10463000F420811102C00E948E210E94FF208093ED
:1046400046020E94072190934F0280934E020E94DF
:104650000321282F30E050E040E029833A834B8348
:104660005C83CA01B9010F900F900F900F90DF91FA
:10467000CF910C944B1D8091570280FF12C0609126
:104680000E0185E0689FB0011124759567957595B9
:10469000679560387105A8F561157105A1F1862F40
:1046A000089581FF09C060910E0185E0689FB00107
:1046B000112475956795EDCF60910E0182FD0AC0BA
:1046C000809156028823D1F090910D0160910E01E6
:1046D000891728F085E0689FB0011124DACF869F02
:1046E000B001112485E0869F9001879F300D112431
:1046F000692F70E0C9010E94B930CBCF65E070E04E
:10470000CECF8FE7089581E008958091570280FF12
:104710000CC060910A0170E0759567957595679575
:104720006115710549F1862F089581FF06C06091DA
:104730000A0170E075956795F3CF60910A0182FDDB
:104740000BC0909156029923A1F0609109018091CC
:104750000A01961738F0682F70E06038710500F391
:104760008FE70895899FC001112470E00E94B9303D
:10477000F4CF61E070E0D7CF81E00895803F31F45D
:104780000E943B23819580935B020895813F19F439
:104790000E943B23F8CF823F31F40E943B23819556
:1047A00080935A020895833F19F40E943B23F8CF67
:1047B000893F29F40E94852380935C0208958A3FF3
:1047C00021F40E9485238195F7CF8B3F31F40E941D
:1047D0008523819580935D0208958C3F19F40E9492
:1047E0008523F8CF843F31F4809159028160809312
:1047F00059020895853F21F4809159028260F7CFD4
:10480000863F21F4809159028460F1CF873F21F4E3
:10481000809159028860EBCF883F21F48091590242
:104820008061E5CF8D3F31F48091570281608093A4
:10483000570208958E3F21F4809157028260F7CF8E
:104840008F3FB9F7809157028460F1CF90915A025F
:10485000803F41F480915B0287FD10925B029923B7
:1048600071F00895813F29F480915B021816ACF332
:10487000F6CF823F81F497FFF2CF10925A028091D7
:104880005B0290915C02892B90915D02892B49F724
:10489000109256020895833F19F4191674F3DFCF6E
:1048A000893F39F480915C021816CCF610925C02B4
:1048B000D6CF8A3F29F480915C0287FFD0CFF6CF14
:1048C0008B3F39F480915D0287FFC9CF10925D0262
:1048D000C6CF8C3F29F480915D021816BCF3BFCF80
:1048E000843F31F4809159028E7F80935902B7CF73
:1048F000853F21F4809159028D7FF7CF863F21F4C7
:10490000809159028B7FF1CF873F21F4809159022A
:10491000877FEBCF883F21F4809159028F7EE5CFCE
:104920008D3F31F4809157028E7F8093570297CF4D
:104930008E3F21F4809157028D7FF7CF8F3F09F092
:104940008ECF809157028B7FF0CF88E592E00E9456
:1049500068150E948B22909355028093540208950B
:104960000F931F93CF93DF9300D000D000D0CDB72B
:10497000DEB786E0E8E5F2E09E012F5F3F4FD90108
:1049800001900D928A95E1F780915A0290915B0215
:10499000892B890181F080915202909153020E94EB
:1049A000B7229C0180915602882341F190910F011A
:1049B0009217130680F180915C0290915D02892B21
:1049C00091F080915002909151020E94B7229C0177
:1049D00080915602882309F479C090910B019217B7
:1049E000130608F481C026960FB6F894DEBF0FBEFA
:1049F000CDBFDF91CF911F910F910895409110018C
:104A00009AE0499FA001112442175307A0F68F5F37
:104A10008093560202C08F3FD1F710925C02109231
:104A20005D0280915A02181624F40E943B23809361
:104A30005A0280915A0287FF05C00E943B2381954C
:104A400080935A0280915B02181624F40E943B2343
:104A500080935B0280915B0287FF05C00E943B232D
:104A6000819580935B0230915A023323A1F020910B
:104A70005B02222381F045EB3403C001112499230A
:104A8000E9F090935A0245EB24039001112433235B
:104A9000C9F030935B020E94A5248091540290914A
:104AA0005502909353028093520286E0F801A8E5E4
:104AB000B2E001900D928A95E1F77DCF81E080937D
:104AC0005A02E1CF81E080935B02E5CF40910C0177
:104AD0009AE0499FA00111244217530708F083CFA1
:104AE0008F5F8093560202C08F3FD1F710925A0217
:104AF00010925B0280915C02181624F40E948523B8
:104B000080935C0280915C0287FF05C00E94852330
:104B1000819580935C0280915D02181624F40E94B6
:104B2000852380935D0280915D0287FF05C00E940E
:104B30008523819580935D0230915C023323A1F03F
:104B400020915D02222381F045EB3403C001112442
:104B50009923E9F090935C0245EB24039001112422
:104B60003323C9F030935D020E94A5248091540242
:104B700090915502909351028093500286E0F80183
:104B8000A8E5B2E001900D928A95E1F72CCF81E083
:104B900080935C02E1CF81E080935D02E5CF86E007
:104BA000E8E5F2E0DF011D928A95E9F710925602DE
:104BB000109257020895809166020895CF93DF9373
:104BC00000D00F92CDB7DEB790916C02943011F502
:104BD00089836A837B839093E9008FEF9091E8004B
:104BE000815095FD06C095ED9A95F1F70000811171
:104BF000F5CF8091E80085FF0DC050E040E063E014
:104C000070E0CE0101960E9486288091E8008E77A0
:104C10008093E8000F900F900F90DF91CF9108954F
:104C2000CF93DF93D82FC92F0E946928823011F0CB
:104C3000843039F46D2F7C2F84E0DF91CF910C9478
:104C4000DE25DF91CF910895BC0183E00C94DE2531
:104C5000CF93DF93D82FC92F0E946928823011F09B
:104C6000843001F584E08093E9008FEF9091E800B3
:104C7000815095FD06C095ED9A95F1F700008111E0
:104C8000F5CF8091E80085FF0DC050E040E066E080
:104C900070E08D2F9C2F0E9486288091E8008E77EF
:104CA0008093E800DF91CF910895CF93DF93D82FC1
:104CB000C92F0E946928823011F0843049F581E0C3
:104CC0008093E9008FEF9091E800815095FD06C038
:104CD00095ED9A95F1F700008111F5CF8091E800EC
:104CE00085FF16C050E040E068E070E08D2F9C2FFB
:104CF0000E9486288091E8008E778093E80088E003
:104D0000ED2FFC2FAEE5B2E001900D928A95E1F710
:104D1000DF91CF910895CF93603219F520916C0205
:104D20002430F9F4C091E900CF703091EC00232FCA
:104D3000217030FD20E8C22B22E02093E900209171
:104D4000E80020FF0BC050E040E060E270E00E940D
:104D500086288091E8008E778093E800CF70C0931A
:104D6000E900CF91089580917502811109C00E94D8
:104D70005D2A0E94BA2A8091E20084608093E2005A
:104D80000895109275020895089508950C944A228A
:104D900042E061EC81E00E94D92942E261EC84E0CA
:104DA0000E94D92942E261EC82E00E94D92942E2C4
:104DB00060EC83E00C94D92980916E02893089F1EE
:104DC00048F4823009F49EC0833009F459C0813020
:104DD00041F008958A3009F485C08B3009F46BC026
:104DE000089580916D02813A09F049C08091E800F0
:104DF000877F8093E8008091710290917202892BE5
:104E000061F468E08EE592E070E00E9424298091D0
:104E1000E8008B778093E800089560E090E080E000
:104E2000F3CF80916D02813251F5809171029091A2
:104E300072028D7F892B19F58091E800877F80931E
:104E4000E8008091E80082FF16C09091F300809105
:104E5000F200029729F48091F1008B7F813021F4D8
:104E60008091F100809366028091E8008B778093B7
:104E7000E8000C940D2A80916C028111E2CF089514
:104E800080916D02813AD9F78091710290917202FE
:104E9000892BA9F78091E800877F8093E8008091B3
:104EA000E80080FFFCCF80911B018093F10080918E
:104EB000E8008E77DCCF80916D02813201F780911E
:104EC000710290917202892BD1F68091E800877F60
:104ED0008093E8000E940D2A80916F0280931B014D
:104EE0000C943F1A80916D02813249F68091E8005E
:104EF000877F8093E8000E940D2A80917002809342
:104F00006702089580916D02813A09F0B8CF8091CF
:104F1000E800877F8093E8008091E80080FFFCCF65
:104F200080916702C2CFCDB7DEB7A0970FB6F894D5
:104F3000DEBF0FBECDBF84B7877F84BF0FB6F894A6
:104F4000A895809160008861809360001092600055
:104F50000FBE80E890E00FB6F894809361009093C4
:104F600061000FBE0E94AC150E945D2A0E94BA2A01
:104F70008091E20084608093E20078940E94412D49
:104F80000E94B61581E191E00E944C1513E08091DA
:104F90006C02853039F10E94C41580916C02843016
:104FA000B1F71093E9008091E80082FFF0CF809183
:104FB000E80090E085FF09C050E040E060E270E06A
:104FC000CE0101960E94D52891E08091E8008B7770
:104FD0008093E8009923D9F260E2CE0101960E9405
:104FE0002B11D5CF0E94F12180916902882379F29B
:104FF0000E943322882359F20E947028C8CF0C9453
:105000000128FC01CB01DA012F2F33272330310592
:10501000D1F070F42130310509F44EC02230310551
:1050200069F48BE590E022E333E02D933C930895FF
:105030002132310521F12232310571F190E080E019
:1050400030E020E0F2CFCF019927E230A9F08330A1
:10505000910550F4009769F0EEE0F3E0019771F7E5
:10506000849190E09F01E1CFE8EFF2E00397C1F374
:10507000E5CFEEE2F3E0F4CFEEEFF2E0F1CF633014
:105080007105E0F6880F991FFC01E855FE4F20815D
:10509000318189E090E0C9CF6330710578F6FB017A
:1050A000EE0FFF1FEE55FE4F2081318181569E4F3E
:1050B000FC01808190E0B9CF82E190E02DE833E0FF
:1050C000B4CF80916C02843011F482E0089581E0C5
:1050D000089580916802811102C00C94612808959E
:1050E00080E189BD82E189BD09B400FEFDCF8091D8
:1050F000D8008F7D8093D8008091E00082608093FB
:10510000E0008091E00081FDFCCF0895AF92BF9256
:10511000CF92DF92FF920F931F93CF93DF936C0197
:10512000EB018A010E942C2AF82E811123C001155F
:10513000110539F0F80180819181C81BD90BC80E87
:10514000D91EB12CA12C2097A9F08091E80085FDF3
:1051500022C08091E8008E778093E8000115110548
:10516000A1F0F80180819181A80EB91EB182A082C0
:1051700085E0F82E8F2DDF91CF911F910F91FF9039
:10518000DF90CF90BF90AF9008950E942C2A882383
:10519000D1F2F82EEFCFF60181916F018093F100EB
:1051A0002197FFEFAF1ABF0ACECFAF92BF92CF9237
:1051B000DF92FF920F931F93CF93DF936C01EB016C
:1051C0008A010E942C2AF82E811123C00115110595
:1051D00039F0F80180819181C81BD90BC80ED91E06
:1051E000B12CA12C2097A9F08091E80085FD22C068
:1051F0008091E8008B778093E80001151105A1F0FC
:10520000F80180819181A80EB91EB182A08285E04B
:10521000F82E8F2DDF91CF911F910F91FF90DF908E
:10522000CF90BF90AF9008950E942C2A8823D1F28E
:10523000F82EEFCF8091F100F60181936F01219755
:10524000FFEFAF1ABF0ACECFFC01CB012091730252
:10525000309174022617370790F0009729F42091B7
:10526000E8002E772093E80040E0009751F44111C8
:1052700008C08091E80082FF31C080E00895C90134
:10528000F3CF20916C022223A9F12530A9F12091BE
:10529000E80023FD2DC02091E80022FDEACF2091F7
:1052A000E80020FFE2CF3091F3002091F200009758
:1052B00019F02830310558F041E02830310509F067
:1052C00040E02091E8002E772093E800CECF419176
:1052D0004093F10001972F5F3F4FE9CF80916C021F
:1052E000882341F0853041F08091E80083FFC1CFF1
:1052F00081E0089582E0089583E00895FC01CB01E8
:1053000020917302309174022617370790F00097AE
:1053100029F42091E8002E772093E80040E00097E0
:1053200051F4411108C08091E80082FF32C080E052
:105330000895C901F3CF20916C022223B1F12530E9
:10534000B1F12091E80023FD2EC02091E80022FD5C
:10535000EACF2091E80020FFE2CF3091F3002091C6
:10536000F200009719F02830310558F041E028305C
:10537000310509F040E02091E8002E772093E80005
:10538000CECF44914093F100319601972F5F3F4F6C
:10539000E8CF80916C02882341F0853041F0809104
:1053A000E80083FFC0CF81E0089582E0089583E0A4
:1053B0000895982F973028F08F708093E90081E04E
:1053C00008959093E900242F762F50E0981731F03C
:1053D0007091EC002091ED005091F00021FD02C091
:1053E0009F5FE8CF3091EB003E7F3093EB00309130
:1053F000ED003D7F3093ED003091EB003160309354
:10540000EB007093EC002093ED005093F00020919E
:10541000EE0027FDE5CF80E0089580916D0287FFC3
:1054200013C08091E80082FF06C08091E8008B776E
:105430008093E80004C080916C028111F2CF08953E
:1054400080916C028823D9F38091E80080FFF8CF27
:105450008091E8008E77ECCF2091E4003091E50058
:1054600095E6A9012091EC00822F817020FF06C0F3
:105470008091E80080FF06C080E008952091E80058
:1054800022FD1AC080916C02882389F0853089F052
:105490008091EB0085FD0FC02091E4003091E50084
:1054A00042175307F9F29150E1F684E0089582E043
:1054B000089583E0089581E008950E94CB2A0E9418
:1054C000D32AE0EEF0E0808181608083E8EDF0E0B7
:1054D00080818F77808319BCA7EDB0E08C918E7F9F
:1054E0008C9380818F7E80831092750208950F9334
:1054F0001F93CF93DF930E94CB2A0E94D32AC8ED3B
:10550000D0E088818F7788838881806888838881CC
:105510008F7D888319BC10926C0210926B021092DE
:10552000690210926A0200EE10E0F80180818B7F20
:10553000808388818160888342E060E080E00E940F
:10554000D929E1EEF0E080818E7F8083E2EEF0E009
:10555000808181608083808188608083F801808180
:105560008E7F8083888180618883DF91CF911F91B6
:105570000F910895E8EDF0E080818F7E8083E7ED64
:10558000F0E080818160808384E082BF81E080934D
:1055900075020C94772AE8EDF0E080818E7F80839D
:1055A0001092E20008951092DA001092E10008953E
:1055B0001F920F920FB60F9211242F933F934F9388
:1055C0005F936F937F938F939F93AF93BF93EF936B
:1055D000FF938091E10082FF0BC08091E20082FF87
:1055E00007C08091E1008B7F8093E1000E94402DF5
:1055F0008091DA0080FF19C08091D80080FF15C02B
:105600008091DA008E7F8093DA008091D90080FF4C
:1056100094C080E189BD82E189BD09B400FEFDCF5F
:1056200081E080936C020E94B3268091E10080FFAC
:1056300019C08091E20080FF15C08091E2008E7F4A
:105640008093E2008091E20080618093E20080918B
:10565000D80080628093D80019BC85E080936C02EA
:105660000E94C5268091E10084FF29C08091E2005C
:1056700084FF25C080E189BD82E189BD09B400FEB7
:10568000FDCF8091D8008F7D8093D8008091E1007C
:105690008F7E8093E1008091E2008F7E8093E20014
:1056A0008091E20081608093E20080916B02882308
:1056B00009F449C084E080936C020E94C626809160
:1056C000E10083FF29C08091E20083FF25C0809123
:1056D000E100877F8093E10082E080936C0210926A
:1056E0006B028091E1008E7F8093E1008091E20067
:1056F0008E7F8093E2008091E20080618093E200DF
:1057000042E060E080E00E94D9298091F00088604A
:105710008093F0000E94C426FF91EF91BF91AF915A
:105720009F918F917F916F915F914F913F912F91B9
:105730000F900FBE0F901F90189519BC10926C021D
:105740000E94C12672CF8091E30087FD02C081E0F4
:10575000B2CF83E0B0CF1F920F920FB60F921124F9
:105760002F933F934F935F936F937F938F939F9369
:10577000AF93BF93CF93DF93EF93FF93D091E90063
:10578000DF708091EC00C82FC17080FDC0E81092DE
:10579000E9008091F000877F8093F00078940E9468
:1057A000EF2B1092E9008091F00088608093F00068
:1057B000CD2BCF70C093E900FF91EF91DF91CF9196
:1057C000BF91AF919F918F917F916F915F914F9119
:1057D0003F912F910F900FBE0F901F9018951F9320
:1057E000CF93DF93CDB7DEB7AA970FB6F894DEBF9D
:1057F0000FBECDBF8DE692E0FC0101962091F10035
:10580000208322E085379207B9F70E94DC26809139
:10581000E80083FF1DC180916D0290916E029A3065
:1058200008F016C1E92FF0E0E058FE4C0C94CD30A2
:10583000803899F0823809F00BC1809171028F7025
:10584000873008F005C18093E9008091EB0085FB6B
:10585000882780F91092E90006C080916A02909131
:105860006902911182609091E800977F9093E8001F
:105870008093F1001092F1008091E8008E77E4C0EF
:10588000882309F4D2C0823009F0E2C080916F020F
:105890008111D5C0809171028F702FEF280F2630B3
:1058A00008F0D6C08093E9002091EB0020FFC7C02C
:1058B000933031F48091EB0080628093EB00BFC0A5
:1058C0009091EB0090619093EB0021E030E001C0FB
:1058D000220F8A95EAF72093EA001092EA0080915D
:1058E000EB008860EACF8111B3C010916F021F777F
:1058F0008091E3008078812B8093E3008091E80021
:10590000877F8093E8000E940D2A8091E80080FF45
:10591000FCCF8091E30080688093E30082E0111166
:1059200083E080936C0294C08058823008F090C06D
:1059300080916F02909170028C3D23E0920799F55F
:1059400083E08A838AE289834FB7F894DE01139655
:1059500020E03EE051E2E32FF0E0509357008491C5
:1059600020FF03C082958F703F5F8F708A30C8F030
:10597000895C90E08D939D932F5F243161F74FBF39
:105980008091E800877F8093E8006AE270E0CE01B2
:1059900001960E9424298091E8008B778093E8008B
:1059A00057C0805DE6CF6091710270917202AE01C6
:1059B0004F5F5F4F0E94FF27BC01892B09F448C04D
:1059C0008091E800877F8093E80089819A810E9416
:1059D0007E29E1CF8038E1F58091E800877F8093D0
:1059E000E80080916B028093F10046CF811130C0B6
:1059F00090916F02923060F58091E800877F8093EC
:105A0000E80090936B020E940D2A80916B0288231C
:105A100011F084E005C08091E30087FDFACF81E0BA
:105A200080936C020E94C82613C080916F0281305F
:105A300079F481E0933009F080E08093690210925C
:105A4000E9008091E800877F8093E8000E940D2A9A
:105A50008091E80083FF0AC08091E800877F8093EF
:105A6000E8008091EB0080628093EB00AA960FB66D
:105A7000F894DEBF0FBECDBFDF91CF911F91089587
:105A80000895CF9380916C028823A1F0C091E90022
:105A9000CF709091EC00892F817090FD80E8C82B29
:105AA0001092E9008091E80083FD0E94EF2BCF70F7
:105AB000C093E900CF9108955058BB27AA270E94B0
:105AC000742D0C941F2F0E94112F38F00E94182F54
:105AD00020F039F49F3F19F426F40C94E72E0EF4CD
